S01200004E6F64655F325F63616E2E737265636A
S1130000C2C00000E0C00000DEC000003CC400002C
S1130010DAC00000D8C00000D6C00000D4C0000080
S1130020D2C00000D0C00000CEC00000CCC0000090
S1130030CAC00000C8C00000C6C00000C4C00000A0
S1130040C2C00000C0C00000BEC00000BCC00000B0
S1130050BAC00000B8C00000B6C00000B4C00000C0
S1130060B2C00000B0C00000AEC00000ACC00000D0
S1130070AAC00000A8C00000A6C00000A4C00000E0
S1130080A2C00000A0C000009EC000009CC00000F0
S11300909AC0000098C0000096C000001CC1000077
S11300A092C0000090C000008EC000008CC0000010
S11300B08AC0000088C0000086C0000084C0000020
S11300C082C0000080C000007EC000007CC0000030
S11300D07AC0000078C0000076C0000074C0000040
S11300E072C000008601D801D801D801D801D80116
S11300F0D801D8018601D801D801D801D801D80186
S1130100D801D8018801D801D801D801D801D80173
S1130110D801D801D801D801D801D801D801D80113
S1130120D801D8018801D801D801D801D801D80153
S1130130D801D801D801D801D801D801D801D801F3
S1130140D801D801D401D801D801D801D801D801E7
S1130150D801D801B101D801D801D801D801D801FA
S1130160D801D801D801D801D801D801D801D801C3
S1130170D801D801A501D801D801D801D801D801E6
S1130180D801D801C30111241FBECFEFD1E2DEBFD5
S1130190CDBF00E00CBF12E0A0E0B2E0E0E9F7E17F
S11301A000E00BBF02C007900D92AE34B107D9F73F
S11301B022E0AEE4B2E001C01D92AC36B207E1F732
S11301C08FD30C94C60B1CCF8098ECE7F0E08081B1
S11301D080648083EAE7F0E0808187688083089503
S11301E0EAE7F0E0808180648083808182FFFDCF34
S11301F0EAE7F0E080818F7E80838091780090919F
S11302007900089580E48093B8001092B9008FEFCC
S11302108093BB0084E08093BC000895ECEBF0E095
S1130220808180FDFDCF809100020895ECEBF0E029
S1130230308130FDFDCF32E0360F309350024093D1
S113024051022093520240FD1BC06623C9F0462F81
S113025050E04E5F5F4F4330510594F022E030E0B0
S113026062E0D901AF5ABD4FFC01E60FF11D329790
S113027070817C936F5F262F30E0241735078CF351
S113028010924F0288EF8093000285EA8093BC00AD
S11302900895B8DF78940895CF93DF931F92CDB774
S11302A0DEB7262F4983482F440F61E0CE01019623
S11302B0BDDFB4DF803241F018F4811107C004C0FF
S11302C0803311F0883411F480E001C081E00F9094
S11302D0DF91CF9108951F920F920FB60F921124C0
S11302E00BB60F922F933F938F939F93AF93BF932C
S11302F0EF93FF938091B90090E0FC013897E135CA
S1130300F10508F055C0EE58FF4F66C510924E0235
S1130310E0914E0280915002E81770F481E08E0F54
S113032080934E02F0E0EF5AFD4F80818093BB0032
S113033085E88093BC0043C080914F028160809324
S11303404F0284E98093BC003AC0E0914E0281E000
S11303508E0F80934E028091BB00F0E0EF5AFD4F68
S1130360808320914E0230E08091500290E001970A
S11303702817390724F485EC8093BC0020C085E855
S11303808093BC001CC08091BB00E0914E02F0E061
S1130390EF5AFD4F808380914F02816080934F021A
S11303A084E98093BC000BC085EA8093BC0007C03D
S11303B08091B9008093000284E08093BC00FF9197
S11303C0EF91BF91AF919F918F913F912F910F909A
S11303D00BBE0F900FBE0F901F90189584B18760CD
S11303E084B9289A8CB580658CBD0895813011F448
S11303F028980895289A08958EBD0DB407FEFDCF60
S11304008EB5089581E0F2DF80ECF6DF80E0EECF78
S1130410089581E0EBDF85E0EFDF8CE2EDDF8FEF25
S1130420EBDF80E0E9DF80E0E1CF0895DF92EF9237
S1130430FF920F931F93CF93DF93182FD62FF42E91
S1130440D22EE32E81E0D2DF83E0D6DF012F0295A6
S1130450007F005D802FD0DF80E0CEDF83FF0DC002
S113046081E0C4DF83E0C8DF802FC6DF80E0C4DF23
S1130470C82F80E0BBDFC3FDF3CF80E0B7DF81E0AE
S1130480B5DF82E0B9DF802FB7DF83E0B5DF80E03E
S1130490ADDF81E0ABDF82E0AFDFC12FC295C07F6B
S11304A081E38C0FA9DF8D2F869586958695A4DF31
S11304B080E09CDF81E09ADF82E09EDF82E38C0FA4
S11304C09BDF8D2F8295880F807E96DF80E08EDF04
S11304D081E08CDF82E090DF85E38C0F8DDF8F2D50
S11304E08F708ADF80E082DF81E080DF82E084DF5A
S11304F086E38C0F81DFFF2041F0CD2DDE2D10E04F
S113050089917ADF1F5F1F11FBCF80E06FDF81E0ED
S11305106DDF82E071DF802F6FDF88E06DDF80E0C8
S113052065DF77DFDF91CF911F910F91FF90EF90FF
S1130530DF900895CF93C62F5FDF8C2F5DDFCF91BF
S113054008958F929F92AF92BF92CF92DF92EF92D3
S1130550FF920F931F93CF93DF93CDB7DEB72E9700
S11305600FB6F894DEBF0FBECDBF6C015B01842EC5
S1130570952E8E010F5F1F4F8EE0F80111928A9520
S1130580E9F781E033DF80EB37DF80E035DF80E0BF
S113059033DFF82E80E02ADF81E028DF83E02CDFE0
S11305A08F2D8295869586958370815A25DF7E01ED
S11305B0FFE0EF0EF11C80E01FDFF80181938F0153
S11305C0EE15FF05C1F78A81880F880F880FF601A1
S11305D080838B8182958695877081838E81F501D6
S11305E08083FE013796A82DB92D81918D93EE1647
S11305F0FF06D9F70EDF2E960FB6F894DEBF0FBEB6
S1130600CDBFDF91CF911F910F91FF90EF90DF90BD
S1130610CF90BF90AF909F908F90089581E0E6DED9
S113062083E0EADE8EEFE8DE80E0E6CE0895CF9345
S1130630C82FE8DE81E0DADE82E0DEDE60E88FEFFC
S113064079DF80E0D3DEEADF829586958770843097
S113065041F02DE032E03F932F93F3D50F900F90AC
S113066007C023E332E03F932F93EBD50F900F9015
S11306708FE99FE00197F1F700C0000081E0B6DE4A
S113068082E0BADE60E080E255DF80E0AFDE8FE931
S11306909FE00197F1F700C0000081E0A7DE82E04F
S11306A0ABDE60E084E246DF80E0A0DE8FE99FE01D
S11306B00197F1F700C0000081E098DE82E09CDE43
S11306C060E081E237DF80E091DE8FE99FE001970F
S11306D0F1F700C0000081E089DE82E08DDE60E099
S11306E085E228DF80E082DE8FE99FE00197F1F761
S11306F000C0000081E07ADE82E07EDE63E08BE20F
S113070019DF80E073DE8FE99FE00197F1F700C005
S1130710000081E06BDE82E06FDE63E08AE20ADFE4
S113072080E064DE8FE99FE00197F1F700C00000EC
S113073081E05CDE82E060DE61ED89E2FBDE80E088
S113074055DE8FE99FE00197F1F700C0000081E0DA
S11307504DDE82E051DE61E488E2ECDE80E046DEDC
S11307608FE99FE00197F1F700C0000081E03EDED1
S113077082E042DE6C2F6295660F607E8FEFDADED8
S113078080E034DECF910895EF92FF920F931F9390
S1130790CF93DF938A988C9800EA0A95F1F7109129
S11307A0060128E030E040E050E0C8E0D0E0E1E0BD
S11307B0F0E0DE01A21BB30B7F0102C0EE0CFF1CB4
S11307C0AA95E2F7D701A12351F0DF01022E02C05E
S11307D0AA0FBB1F0A94E2F74A2B5B2B0BC0DF0165
S11307E0022E02C0AA0FBB1F0A94E2F7A095B0958F
S11307F04A235B232150310921153105D1F6FC012F
S113080040838C9AF0EAFA95F1F7C091060188E0EA
S113081090E0A8E0B0E021E030E0FD01E81BF90B36
S1130820790102C0EE0CFF1CEA95E2F7F701EC2314
S113083051F0F901082E02C0EE0FFF1F0A94E2F7EF
S11308404E2B5F2B0BC0F901082E02C0EE0FFF1FC9
S11308500A94E2F7E095F0954E235F230197009701
S1130860E1F6FB0140838B9A8A9ADF91CF911F9125
S11308700F91FF90EF9008958A988B988B9A8B989C
S11308808B9A8A9A08951F920F920FB60F92112491
S11308908F939F9381E090E090936502809364022C
S11308A0E2989F918F910F900FBE0F901F90189513
S11308B00F931F93CF93DF93CAE0D0E000E010E0E2
S11308C08FDC080F191F21972097D1F7C8016AE020
S11308D070E06FD2862FDF91CF911F910F91089511
S11308E0CF93DF93CDB7DEB7AE970FB6F894DEBFE4
S11308F00FBECDBF7894EA9AE9E6F0E08081806289
S1130900808339D261DC6ADD7DDDC3DC80E090E088
S11309108EDE80B38C6780BBE1E0F1E08081826091
S11309208083109207018D9A8E9A48E760E088E2EE
S1130930B3DC2FEF37EA81E6215030408040E1F705
S113094000C000008D98E2E0F1E080818D7F80831B
S113095002E310E091DF0150110901151105D1F7EF
S11309608D9A8E9848E760E088E296DC9FEFA7EACC
S1130970B1E69150A040B040E1F700C000008D986E
S11309800F2EFAE0EF2EF12CF02D00E010E0BE0166
S11309906B5E7F4FCE014496F7DE8C8990E0982FF2
S11309A088272D89820F911D080F191FE1E0EE1A87
S11309B0F108E114F10459F7C8016AE070E0F9D1D3
S11309C07AA769A718A61FA21E8E1D8E188E1F8ACD
S11309D01E8A6894222421F833243394F9A5FBA7B2
S11309E02AA52CA7CB019195819591099EA78DA746
S11309F0D1018C9182608C93BE016B5E7F4FCE01DE
S1130A004496C2DE0C891D8953DF8D508B3140F42E
S1130A10809163028F5F80936302853120F408C064
S1130A201092630205C010926302BE89BF5FBE8B41
S1130A308091640290916502892B09F496C1E9DCE6
S1130A401092650210926402AE014F5F5F4FBE01C7
S1130A506D5E7F4FCE01419674DDDBDC6B8170E00F
S1130A60655771096E37710514F06DE770E06338EE
S1130A70EFEF7E0714F463E87FEFCB01029605974E
S1130A8010F460E070E0882777FD8095982FC2D23B
S1130A9020E030E040E85BE371D320E030E040E068
S1130AA051E46CD39B01AC0160E070E080E091E420
S1130AB0ADD120E030E040EA50E4A9D17DD2F62E59
S1130AC0862F6CD16D8170E080E090E0A3D220E0AD
S1130AD030E04AE754E403D22B013C01609309025D
S1130AE070930A0280930B0290930C026E8170E063
S1130AF080E090E08FD220E030E04AE754E4EFD188
S1130B006F8F78A389A39AA360930502709306025A
S1130B1080930702909308026F8170E080E090E078
S1130B2079D220E030E048EC52E4D9D1698F7A8F51
S1130B308B8F9C8F60930102709302028093030257
S1130B4090930402F986FE89FA878B818B878C89BE
S1130B508E878D898F87888D8C878F89988D9078E3
S1130B608D878C813CE3389F90011124388F2F8B23
S1130B70802F90E0982F8827DC01A10FB11D2A1B3C
S1130B803B0B8901ED8DFE8DE20FF31FFE8FED8F80
S1130B90B901332324F466277727621B730B882754
S1130BA077FD8095982F36D26B017C016BA57CA5CF
S1130BB029A53AA5332314F46DA57EA5882777FDCE
S1130BC08095982F27D26BA37CA38DA39EA32DEC95
S1130BD03CEC4CEC5DE3D2D24B015C019B01AC01DB
S1130BE0C701B60178D1882334F5B801882777FD89
S1130BF08095982F0FD29B01AC01C301B201BED2E4
S1130C006B017C01B8018FA198A5681B790B88271B
S1130C1077FD8095982FFED19B01AC01698D7A8D6B
S1130C208B8D9C8DABD29B01AC01C701B601EFD07B
S1130C306B017C0148C0A5019401C701B6019AD299
S1130C408823F4F02AE939E949E15FE36BA17CA147
S1130C508DA19EA193D29B01AC01C701B6013BD1EA
S1130C60882374F4B801882777FD8095982FD2D112
S1130C709B01AC01C301B20181D26B017C0123C091
S1130C80B801882777FD8095982FC4D19B01AC01CA
S1130C90C301B20173D26B017C01AD8DBE8DBD0168
S1130CA0882777FD8095982FB5D19B01AC016F8D76
S1130CB078A189A19AA162D29B01AC01C701B601B6
S1130CC0A6D06B017C0120E030E0A901C701B60188
S1130CD051D218161CF48D9A8E980CC020E030E086
S1130CE0A901C701B601F7D088231CF48D9A8E9A06
S1130CF001C08D9820E030E046E153E4C701B6011D
S1130D0039D2181654F020E030E046E153ECC70124
S1130D10B601E1D0882354F011C00F2EC12CD12C80
S1130D20F6E1EF2EF3E4FF2EF02D08C00F2EC12CB8
S1130D30D12CF6E1EF2EF3E4FF2EF02DC701B6011E
S1130D4036D1AB01772324F444275527461B570B90
S1130D5060E088E2A1DA9E01275F3F4F48E065E04A
S1130D6080E064DB56DB18A70FA353DBF10180811D
S1130D708D7F80833DCEE1E0F1E0808180648083DB
S1130D80E0EBF0E0808181628083E1EBF0E0808140
S1130D908F6080838CE98093B300089598EF980F57
S1130DA0993020F088E08093B40008958093B400D3
S1130DB0089597FB072E16F4009406D077FD08D00B
S1130DC011D007FC05D03EF4909581959F4F08956E
S1130DD0709561957F4F0895EE0FFF1F0590F49174
S1130DE0E02D1994AA1BBB1B51E107C0AA1FBB1F0E
S1130DF0A617B70710F0A61BB70B881F991F5A95A3
S1130E00A9F780959095BC01CD0108955058BB2752
S1130E10AA270ED075C166D130F06BD120F031F421
S1130E209F3F11F41EF45BC10EF4E095E7FB51C142
S1130E30E92F77D180F3BA17620773078407950700
S1130E4018F071F49EF58FC10EF4E0950B2EBA2FB5
S1130E50A02D0B01B90190010C01CA01A0011124BC
S1130E60FF27591B99F0593F50F4503E68F11A1668
S1130E70F040A22F232F342F4427585FF3CF4695F9
S1130E8037952795A795F0405395C9F77EF41F161B
S1130E90BA0B620B730B840BBAF09150A1F0FF0FE5
S1130EA0BB1F661F771F881FC2F70EC0BA0F621FD1
S1130EB0731F841F48F4879577956795B795F795C1
S1130EC09E3F08F0B3CF9395880F08F09927EE0F53
S1130ED0979587950895D9D008F481E008950CD0AA
S1130EE00FC107D140F0FED030F021F45F3F19F07C
S1130EF0F0C0511139C1F3C014D198F39923C9F347
S1130F005523B1F3951B550BBB27AA27621773070B
S1130F10840738F09F5F5F4F220F331F441FAA1FBF
S1130F20A9F333D00E2E3AF0E0E830D0915050407F
S1130F30E695001CCAF729D0FE2F27D0660F771F2D
S1130F40881FBB1F261737074807AB07B0E809F00F
S1130F50BB0B802DBF01FF2793585F4F2AF09E3FA4
S1130F60510568F0B6C000C15F3FECF3983EDCF376
S1130F70869577956795B795F7959F5FC9F7880F1D
S1130F80911D9695879597F90895E1E0660F771F6F
S1130F90881FBB1F621773078407BA0720F0621B00
S1130FA0730B840BBA0BEE1F88F7E095089504D0F9
S1130FB06894B111D9C00895BCD088F09F5790F0BF
S1130FC0B92F9927B751A0F0D1F0660F771F881F6A
S1130FD0991F1AF0BA95C9F712C0B13081F0C3D085
S1130FE0B1E00895C0C0672F782F8827B85F39F023
S1130FF0B93FCCF3869577956795B395D9F73EF4C9
S113100090958095709561957F4F8F4F9F4F089570
S1131010E89409C097FB3EF490958095709561958E
S11310207F4F8F4F9F4F9923A9F0F92F96E9BB2744
S11310309395F695879577956795B795F111F8CFC0
S1131040FAF4BB0F11F460FF1BC06F5F7F4F8F4F2B
S11310509F4F16C0882311F096E911C0772321F021
S11310609EE8872F762F05C0662371F096E8862FB9
S113107070E060E02AF09A95660F771F881FDAF710
S1131080880F9695879597F90895990F0008550F3D
S1131090AA0BE0E8FEEF16161706E807F907C0F0FA
S11310A012161306E407F50798F0621B730B840B02
S11310B0950B39F40A2661F0232B242B252B21F4DC
S11310C008950A2609F4A140A6958FEF811D811D7C
S11310D0089597F99F6780E870E060E008959FEFB6
S11310E080EC089500240A941616170618060906BB
S11310F0089500240A94121613061406050608958A
S1131100092E0394000C11F4882352F0BB0F40F411
S1131110BF2B11F460FF04C06F5F7F4F8F4F9F4F51
S1131120089557FD9058440F551F59F05F3F71F0D3
S11311304795880F97FB991F61F09F3F79F087953A
S11311400895121613061406551FF2CF4695F1DFC3
S113115008C0161617061806991FF1CF8695710553
S1131160610508940895E894BB2766277727CB0187
S113117097F908958ADF08F48FEF08950BD0C0CF54
S1131180B1DF28F0B6DF18F0952309F0A2CFA7CF7E
S11311901124EACFC6DFA0F3959FD1F3950F50E059
S11311A0551F629FF001729FBB27F00DB11D639F15
S11311B0AA27F00DB11DAA1F649F6627B00DA11DBB
S11311C0661F829F2227B00DA11D621F739FB00D61
S11311D0A11D621F839FA00D611D221F749F3327D1
S11311E0A00D611D231F849F600D211D822F762F6A
S11311F06A2F11249F5750408AF0E1F088234AF067
S1131200EE0FFF1FBB1F661F771F881F91505040B2
S1131210A9F79E3F510570F05CCFA6CF5F3FECF37A
S1131220983EDCF3869577956795B795F795E7959E
S11312309F5FC1F7FE2B880F911D9695879597F9AF
S11312400895CF93DF93CDB7DEB7FE013696619153
S11312507191AF01809168029091690203D0DF918E
S1131260CF9108952F923F924F925F926F927F9207
S11312708F929F92AF92BF92CF92DF92EF92FF92A2
S11312800F931F93CF93DF93CDB7DEB72C970FB691
S1131290F894DEBF0FBECDBF7C016B018A01FC0157
S11312A017821682838181FFB0C1CE0101964C0161
S11312B0F7019381F60193FD859193FF81916F016D
S11312C0882309F49EC1853239F493FD859193FFF7
S11312D081916F01853221F4B70190E0C7D1E8CF45
S11312E0512C312C20E02032A0F48B3269F030F400
S11312F0803259F0833269F420612CC08D3239F088
S1131300803339F4216026C02260246023C0286021
S113131021C027FD27C030ED380F3A3078F426FF7E
S113132006C0FAE05F9E300D1124532E13C08AE0EC
S1131330389E300D1124332E20620CC08E3221F4DD
S113134026FD5FC1206406C08C3611F4206802C0FB
S1131350883641F4F60193FD859193FF81916F01E5
S11313608111C1CF982F9F7D9554933028F40C5F41
S11313701F4FFFE3F9830DC0833631F0833771F0DB
S1131380833509F057C021C0F801808189830E5F3D
S11313901F4F44244394512C540114C03801F2E0EB
S11313A06F0E711CF801A080B18026FF03C0652D6B
S11313B070E002C06FEF7FEFC5012C874CD12C0188
S11313C083012C852F77222E16C03801F2E06F0E90
S11313D0711CF801A080B18026FF03C0652D70E068
S11313E002C06FEF7FEFC5012C872AD12C012C8519
S11313F02068222E830123FC19C0832D90E0481617
S11314005906A0F4B70180E290E030D13A94F5CFC8
S1131410F50127FC859127FE81915F01B70190E0DA
S113142025D131103A94F1E04F1A51084114510476
S113143079F7DEC0843611F0893631F5F80127FFDB
S113144007C060817181828193810C5F1F4F08C046
S113145060817181882777FD8095982F0E5F1F4FDB
S11314602F76B22E97FF09C090958095709561955F
S11314707F4F8F4F9F4F2068B22E2AE030E0A401A7
S113148027D1A82EA81843C0853729F42F7EB22E61
S11314902AE030E025C0F22FF97FBF2E8F36C1F04D
S11314A018F4883579F0ADC0803719F0883721F009
S11314B0A8C02F2F2061B22EB4FE0DC08B2D8460E6
S11314C0B82E09C024FF0AC09F2F9660B92E06C00B
S11314D028E030E005C020E130E002C020E132E045
S11314E0F801B7FE07C060817181828193810C5F2E
S11314F01F4F06C06081718180E090E00E5F1F4F36
S1131500A401E6D0A82EA818FB2DFF77BF2EB6FEA7
S11315100BC02B2D2E7FA51450F4B4FE0AC0B2FCD0
S113152008C02B2D2E7E05C07A2C2B2D03C07A2CBF
S113153001C0752C24FF0DC0FE01EA0DF11D808150
S1131540803311F4297E09C022FF06C0739473947A
S113155004C0822F867809F0739423FD12C020FF03
S113156006C05A2C731418F4530C5718732C7314A4
S113157060F4B70180E290E02C8778D073942C85D6
S1131580F6CF731410F4371801C0312C24FF11C0A6
S1131590B70180E390E02C8769D02C8522FF16C028
S11315A021FF03C088E590E002C088E790E0B7011E
S11315B00CC0822F867851F021FD02C080E201C068
S11315C08BE227FD8DE2B70190E050D0A51430F4F2
S11315D0B70180E390E04AD05A94F8CFAA94F4017A
S11315E0EA0DF11D8081B70190E040D0A110F6CF43
S11315F0332009F45DCEB70180E290E037D03A940D
S1131600F7CFF7018681978102C08FEF9FEF2C9669
S11316100FB6F894DEBF0FBECDBFDF91CF911F91FF
S11316200F91FF90EF90DF90CF90BF90AF909F907D
S11316308F907F906F905F904F903F902F90089580
S1131640FC010590615070400110D8F78095909589
S11316508E0F9F1F0895FC0161507040019001108E
S1131660D8F7809590958E0F9F1F08950F931F9321
S1131670CF93DF93182F092FEB018B8181FD03C0DA
S11316808FEF9FEF20C082FF10C04E815F812C81BD
S11316903D81421753077CF4E881F9819F012F5F54
S11316A03F4F39832883108306C0E885F985812F4D
S11316B01995892B29F72E813F812F5F3F4F3F8357
S11316C02E83812F902FDF91CF911F910F91089539
S11316D0FA01AA27283051F1203181F1E8946F935F
S11316E06E7F6E5F7F4F8F4F9F4FAF4FB1E03ED005
S11316F0B4E03CD0670F781F891F9A1FA11D680FA3
S1131700791F8A1F911DA11D6A0F711D811D911DD5
S1131710A11D20D009F468943F912AE0269F11244A
S11317203019305D3193DEF6CF010895462F4770AE
S1131730405D4193B3E00FD0C9F7F6CF462F4F7009
S1131740405D4A3318F0495D31FD4052419302D067
S1131750A9F7EACFB4E0A69597958795779567950D
S1131760BA95C9F700976105710508959B01AC010D
S11317700A2E06945795479537952795BA95C9F734
S1131780620F731F841F951FA01D0895F894FFCF47
S1131790F8CDCC4C3D0AD7A33B6F12033C0A0D4550
S11317A052524F5220554E41424C4520544F2045F1
S11317B04E54455220434F4E464947204D4F4445D1
S11317C00A0D000A0D20434F4E464947204D4F4411
S11117D0452041434849455645440A0D000052
S9030000FC
