S011000068656C6C6F5F6176722E7372656357
S11300000C94E4010C94AF070C9401020C9498072F
S11300100C9401020C9401020C9401020C94010250
S11300200C9401020C9401020C9401020C94010240
S11300300C9401020C9401020C9401020C94010230
S11300400C9401020C9401020C9401020C94010220
S11300500C94C6070C9401020C9401020C94010246
S11300600C9401020C9401020C9401020C94010200
S11300700701D301D3015801D301A0040000707219
S1130080657373204420666F722044454D4F00070A
S113009001D301D3017801D301A004AB04707265CC
S11300A07373207120666F722064656275672069BE
S11300B06E666F000703D301CC009C01D301A0043A
S11300C0000054756E696E67204B64000702B4002B
S11300D0E4009C01D301A004000054756E696E67AE
S11300E0204B69000701CC00D3019C01D301A0047B
S11300F0000054756E696E67204B70000703D301CE
S11301001401B901D301A00400004175746F20509B
S11301106C6179000702FC003701B901D301A00426
S11301200000506C6179207769746820536D6172A6
S11301307450686F6E650007011401D301B901D3CF
S113014001A0040000506C61792077697468204A2A
S11301506F79737469636B001405D3017801D3015B
S11301607000A00400004475616C204275666665E9
S1130170722044656D6F21000F0458019C01D30166
S11301808F00A00400004F6E2074686520466C79CF
S113019020446562756767696E6721000A03780108
S11301A0B901D301E400A00400004F6E6C696E65D0
S11301B02054756E696E67210005029C01D301D33A
S11301C0013701A00400004C6574277320506C6152
S11301D07921000000000000000000000000000081
S11301E000000000000000005E0000000E000E0091
S11301F0287C287C2808547C542026100864002875
S11302005428400000000E0000003C420000004260
S11302103C0000005438540010107C101000806022
S1130220200010101010000060600000201008046E
S113023000003C423C0000447E40004462524C00BA
S1130240224A4A360018147E10002E4A4A32003CD4
S11302504A4A300002621A0600344A4A34000C52F8
S1130260523C00006C6C0000806C2C0000001028D4
S11302704400282828280000442810000004520CB8
S1130280003C425A1C007C12127C007E4A4A340014
S11302903C424224007E42423C007E4A4A42007E66
S11302A00A0A02003C425274007E08087E000042A2
S11302B07E42002040403E007E182442007E4040A2
S11302C040007E0C0C7E007E0C307E003C42423CA2
S11302D0007E12120C003C6242BC007E12324C00C2
S11302E0244A52240000027E02003E40403E001E8A
S11302F060601E007E30307E006618186600000EB6
S1130300700E0062524A4600007E42420004081009
S113031020000042427E00000402040040404040AD
S113032000000204000030482878007E484830006D
S113033030484800003048487E00306858100010AB
S11303407C12040050A8A898007E08087000004899
S11303507A40000040807A007E1028400000427EEF
S11303604000781018700078080870003048483051
S113037000F848483000304848F800780808100071
S11303805058682800083E48400038404078000033
S1130390384038007860607800483030480018A051
S11303A0403800486858480000083C420000007E7D
S11303B0000000423C080004020402006364696E09
S11303C06F70737578585B0011241FBECFEFD4E0B3
S11303D0DEBFCDBF12E0A0E0B1E0ECE9F1E202C083
S11303E005900D92A43BB107D9F722E0A4EBB2E04B
S11303F001C01D92A33EB207E1F70E94CE040C9403
S1130400CC100C940000FC01FC5E808326EA2A9543
S1130410F1F700C08091001490E036EA3A95F1F7C4
S113042000C020910014820F911D26EA2A95F1F74D
S113043000C02091001436EA3A95F1F700C0820F0B
S1130440911D63E070E00E941F0A862F0895809139
S113045000148AE090E020E030E0E0E0F4E1408144
S1130460240F311DA7EAB1E61197F1F700C000008F
S113047001970097A1F7ADECBCEC0E94330A969566
S113048087959695879596958795089585B78068FD
S113049085BF80B7806280BF86E090E00E9427021B
S11304A08093B50280E18A95F1F700C084E090E082
S11304B00E9427028093B40280E18A95F1F700C07C
S11304C00895CF9386E090E00E940302C82F84E051
S11304D090E00E9403026C2F782F80E0CF91089562
S11304E087B3806B87BBC49A8DB180658DB908953D
S11304F0813011F4C4980895C49A08958FB9779BF4
S1130500FECF8FB1089581E00E94780280EC0E94B2
S11305107E0280E00E947802089581E00E947802C1
S113052085E00E947E028CE20E947E028FEF0E9490
S11305307E0280E00E947E0280E00E94780208959C
S1130540EF92FF920F931F93CF93DF93C82FD62F71
S1130550042FE22E132F81E00E94780283E00E9490
S11305607E028C2F8295807F0F2EF0E3FF2EF02DDC
S1130570F80E8F2D0E947E0280E00E947E0280E0B1
S11305800E94780281E00E94780282E00E947E024A
S11305908F2D0E947E0283E00E947E0280E00E94F2
S11305A0780281E00E94780282E00E947E02C29575
S11305B0C07F81E38C0F0E947E028D2F86958695E5
S11305C086950E947E0280E00E94780281E00E946B
S11305D0780282E00E947E0282E38C0F0E947E02F7
S11305E08D2F8295880F807E0E947E0280E00E947B
S11305F0780281E00E94780282E00E947E0285E314
S11306008C0F0E947E02802F8F700E947E0280E0F9
S11306100E94780281E00E94780282E00E947E02B9
S113062086E38C0F0E947E02002349F0CE2DD12F49
S113063010E089910E947E021F5F1013FACF80E0C0
S11306400E94780281E00E94780282E00E947E0289
S11306508F2D0E947E0288E00E947E0280E00E942C
S113066078020E948D02DF91CF911F910F91FF902C
S1130670EF900895CF93C62F0E947E028C2F0E9484
S11306807E02CF9108958F929F92AF92BF92CF92A4
S1130690DF92EF92FF920F931F93CF93DF93CDB727
S11306A0DEB72E970FB6F894DEBF0FBECDBF6C0138
S11306B05B01842E952E8E010F5F1F4F8EE0F80193
S11306C011928A95E9F781E00E94780280EB0E94FA
S11306D07E0280E00E947E0280E00E947E02F82E6C
S11306E080E00E94780281E00E94780283E00E9408
S11306F07E028F2D8295869586958370815A0E94FD
S11307007E027E01FFE0EF0EF11C80E00E947E027B
S1130710F80181938F01EE15FF05B9F78A81880FDF
S1130720880F880FF60180838B8182958695877068
S113073081838E81F5018083FE013796A82DB92D22
S113074081918D93EE16FF06D9F70E948D022E96A5
S11307500FB6F894DEBF0FBECDBFDF91CF911F91CE
S11307600F91FF90EF90DF90CF90BF90AF909F904C
S11307708F90089581E00E94780283E00E947E02B7
S11307808EEF0E947E0280E00E947E020895CF9345
S1130790C82F0E94830281E00E94780282E00E94B6
S11307A07E0260E88FEF0E943A0380E00E947802A4
S11307B00E94BA03829586958770843049F020E2BE
S11307C031E03F932F930E94A10A0F900F9008C02D
S11307D026E431E03F932F930E94A10A0F900F90DB
S11307E088E194E00197F1F700C0000081E00E94E5
S11307F0780282E00E947E0260E080E20E943A0376
S113080080E00E94780288E194E00197F1F700C04B
S1130810000081E00E94780282E00E947E0260E093
S113082084E20E943A0380E00E94780288E194E026
S11308300197F1F700C0000081E00E94780282E095
S11308400E947E0260E081E20E943A0380E00E94FE
S1130850780288E194E00197F1F700C0000081E09C
S11308600E94780282E00E947E0260E085E20E949B
S11308703A0380E00E94780288E194E00197F1F75E
S113088000C0000081E00E94780282E00E947E02A3
S113089063E08BE20E943A0380E00E94780288E1E0
S11308A094E00197F1F700C0000081E00E94780213
S11308B082E00E947E0263E08AE20E943A0380E0C2
S11308C00E94780288E194E00197F1F700C00000EB
S11308D081E00E94780282E00E947E0261ED89E25A
S11308E00E943A0380E00E94780288E194E0019734
S11308F0F1F700C0000081E00E94780282E00E94CB
S11309007E0261E488E20E943A0380E00E94780259
S113091088E194E00197F1F700C0000081E00E94B3
S1130920780282E00E947E026C2F6295660F607EE0
S11309308FEF0E943A0380E00E947802CF910895DD
S1130940CF93DF93EA010E940E09CE010E94F309BE
S1130950DF91CF91089560E086E00E940E0980E661
S113096091E00E94B50A81E090E090931D0180938C
S11309701C010895CF93DF93EA010E940E09CE0172
S11309800E946109DF91CF910895F894C09880E0A6
S113099090EF0197F1F7C09A78940895CF93DF937D
S11309A0CDB7DEB7A0970FB6F894DEBF0FBECDBFAC
S11309B08EE091E09093E0028093DF028FE190E07B
S11309C00E94040A20E031E042E150E061E070E07E
S11309D084E891E00E946D0A0E94DB080E9472097B
S11309E087E991E00E94E4090E94460281E087BB06
S11309F088BB78948BB780668BBF85B7826085BFD0
S1130A000E9470020E94830280E090E00E94C7036B
S1130A108AEB94E00E94D00882E799E00E941108D2
S1130A200E94720989EB91E00E9490080E942808B4
S1130A3089EB91E00E94900888E08C8785E08D879F
S1130A408E875E0123E1A20EB11C8E01085F1F4F49
S1130A508A2C9B2C0F2EF6EACF2EF1E0DF2EF02D00
S1130A600F2EFDEDEF2EF1E0FF2EF02D8091C00250
S1130A70833079F128F4813051F08230C9F057C0C5
S1130A80843009F437C0853009F447C050C010924F
S1130A901D0110921C011092BF021092BE020E940E
S1130AA00C080496FC01859194910E9490083FC023
S1130AB010921D0110921C011092BF021092BE02EE
S1130AC00E940C080296FC01859194910E94900862
S1130AD02EC010921D0110921C011092BF021092A0
S1130AE0BE020E940C080696FC01859194910E9416
S1130AF090081DC00E94720910921D0110921C01E1
S1130B001092BF021092BE020E940C080896FC01CB
S1130B10859194910E9490080AC010921D01109230
S1130B201C011092BF021092BE020E94160810927D
S1130B30C0020E946102762E672E582E8FEF9FED21
S1130B4021E0815090402040E1F700C00000198668
S1130B507A86862D80958B879E01275F3F4F48E0DC
S1130B6065E080E00E94A0028091BC029091BD02E9
S1130B70892B69F01092BD021092BC02AE014F5F46
S1130B805F4F60E070E0CE0141960E9443032091E4
S1130B901C0130911D01232B09F463C061E085E041
S1130BA00E940E098A8588231CF490E09A9501C05E
S1130BB090E09C8B8B8B88891F928F938F851F92DB
S1130BC08F938E851F928F938D851F928F938C8523
S1130BD01F928F935F926F921F927F9289851F92CB
S1130BE08F93DF92CF920E94A10A64E085E00E9475
S1130BF00E09FE013196A82DB92D0FB6F894DEBF6B
S1130C000FBECDBF819188231CF490E09A9501C05A
S1130C1090E08D939D93E017F107A1F78E8190E00A
S1130C20982F88272F81820F911D9F938F938C81FA
S1130C3090E0982F88272D81820F911D9F938F9389
S1130C408E898F938D898F938C898F938B898F93C2
S1130C50FF92EF920E94A10A0FB6F894DEBF0FBE76
S1130C60CDBF8091BA029091BB02892B31F01092D2
S1130C70BB021092BA020E94C5048091B8029091FE
S1130C80B902892B09F4F2CE60E080E00E940E09DB
S1130C9089EC92E09F938F9388E092E09F938F93E7
S1130CA00E94A10A1092B9021092B80269EC72E093
S1130CB08BE092E00E94560A0F900F900F900F90D5
S1130CC0892B21F481E08093C00287C069EC72E033
S1130CD084EA92E00E94560A892B21F482E08093F0
S1130CE0C0027BC069EC72E08EE092E00E94560A7A
S1130CF0892B21F483E08093C0026FC069EC72E019
S1130D0081E192E00E94560A892B21F484E08093C9
S1130D10C00263C069EC72E084E192E00E94560A6A
S1130D20892B21F485E08093C00257C069EC72E0FE
S1130D3087E192E00E94560A892B99F510921D01D1
S1130D4010921C011092BF021092BE0284EE90E039
S1130D500E94900860E086E00E940E098FE192E014
S1130D600E94B50A65E082E00E940E098E851F92FA
S1130D708F938D851F928F938C851F928F9384E31D
S1130D8092E09F938F930E94A10A81E090E0909358
S1130D90BF028093BE020FB6F894DEBF0FBECDBF74
S1130DA01CC069EC72E080E592E00E94560A892B2F
S1130DB0A1F410921D0110921C011092BF02109216
S1130DC0BE0287E391E00E94900860E086E00E9402
S1130DD00E0986E592E00E94B50A69EC72E085E6A8
S1130DE092E00E94560A892B71F410921D01109210
S1130DF01C011092BF021092BE028FE890E00E9484
S1130E0090080E9416088091BE029091BF02892B1F
S1130E1009F42CCE43E050E069EC72E08CE692E0F9
S1130E200E945F0A892BF1F4BF92AF9280E792E0AF
S1130E309F938F9389EC92E09F938F930E94E20A91
S1130E408B899C898C8799279F938F9387E792E05E
S1130E509F938F930E94A10A0FB6F894DEBF0FBE32
S1130E60CDBF4DC043E050E069EC72E084E892E00D
S1130E700E945F0A892BE9F4BF92AF9288E892E05E
S1130E809F938F9389EC92E09F938F930E94E20A41
S1130E908B898D878C851F928F938FE892E09F9327
S1130EA08F930E94A10A0FB6F894DEBF0FBECDBF88
S1130EB026C043E050E069EC72E08CE992E00E94C5
S1130EC05F0A892BE1F4BF92AF9280EA92E09F938C
S1130ED08F9389EC92E09F938F930E94E20A8B890F
S1130EE08E878C851F928F9387EA92E09F938F93CE
S1130EF00E94A10A0FB6F894DEBF0FBECDBF65E015
S1130F0082E00E940E098E851F928F938D851F9219
S1130F108F938C851F928F9384E392E09F938F939A
S1130F200E94A10A0FB6F894DEBF0FBECDBF92CDCA
S1130F301F920F920FB60F9211248F939F9381E00B
S1130F4090E09093BD028093BC028AB78F7D8ABFE4
S1130F509F918F910F900FBE0F901F9018951F9225
S1130F600F920FB60F9211248F939F9381E090E01C
S1130F709093BB028093BA028AB78F7B8ABF9F91FA
S1130F808F910F900FBE0F901F9018951F920F9284
S1130F900FB60F9211242F938F939F93EF93FF9388
S1130FA08091B8029091B902892B61F583B1E091E7
S1130FB0B602F091B702E753FD4F808317988091F2
S1130FC0B6029091B702FC01E753FD4F20812D300A
S1130FD029F02A3019F0833191057CF0FC01E753A4
S1130FE0FD4F11821092B7021092B60281E090E098
S1130FF09093B9028093B80205C001969093B7020A
S11310008093B602FF91EF919F918F912F910F9052
S11310100FBE0F901F90189580911E0190911F0193
S113102008959093C4028093C3020895E0911E0131
S1131030F0911F0181E0E33DF80749F0309739F062
S11310403C9685919491009711F0FC0109950895BF
S1131050CF93DF93C0911E01D0911F0121E0C33DC6
S1131060D20709F45AC0209709F457C0CE01049658
S1131070FC0125913491235D3140A9F0FC012591B7
S11310803491232B81F0FC0185919491EC01049619
S1131090FC0125913491235D314029F0FC01259117
S11310A03491232B81F72091C5023091C60221157A
S11310B0310509F432C0FE0131966491FE01849138
S11310C0AE01425F5F4FF90109952296FE018591B9
S11310D09491835D914009F1FE0185919491892B4E
S11310E0E1F0FE01C591D491FE0131966491FE01B7
S11310F08491AE01425F5F4FE091C502F091C60258
S113110009952296FE0185919491835D914029F081
S1131110FE0185919491892B21F7DF91CF91089558
S1131120CF93DF9321E0833D920709F436C0009703
S113113009F433C0E0911E01F0911F01F093C20243
S1131140E093C10290931F0180931E01369625916E
S113115034910696FC01859194912817390729F05A
S1131160E091C302F091C4020995E0911E01F0914F
S11311701F013A96C591D4910E942808209769F0DE
S113118040911E0150911F01FA0131966491FA01B8
S11311908491425F5F4FFE010995DF91CF910895DD
S11311A09093C6028093C50280911E0190911F0105
S11311B00E949008089585B7806885BF80B78062D3
S11311C080BFEFE0F0E18EEA808381EA80838AEDDC
S11311D0808382E1808388EC808388EA80838FE344
S11311E0808385ED808380E8808381E8808380E547
S11311F0808389ED808381E2808380E28083108212
S11312008BED808380E380838DEA8083108284EA7F
S1131210808386EA80838FEA808308958093C8025E
S11312206093C702EFE0F0E191E2908380838FE75F
S1131230808382E28083608386E080830895809146
S1131240C7028F5F8093C7028091C702873010F076
S11312501092C7026091C70280E00E940E090895AF
S1131260CF938A3019F40E941F0929C0C0EEC80F19
S11312708091C8028B5F8093C8028091C8028D3729
S113128070F00E941F090BC0FC01E20FF31FE491F0
S1131290EC932F5F3F4F25303105B1F710C08C2FF1
S11312A090E09C01220F331F220F331F820F931FE4
S11312B020E030E08F519E4FAFE0B2E1E5CFCF9117
S11312C00895CF93DF93EC01FC018491882339F0D6
S11312D00E9430092196FE0184918111F9CFDF919A
S11312E0CF9108951092C8021092C702EFE0F0E186
S11312F08EEA808380E28083108281E28083108280
S11313008FE7808382E28083108287E0808380E499
S1131310808380E094E0EFE0F2E11082019700978F
S1131320E1F7EFE0F0E181E2808310828FE78083D0
S113133082E28083108286E080838CE780838FEA58
S1131340808360E080E00E940E0908958D3011F0E2
S11313508A3019F40E941F0902C00E94300980E0FB
S113136090E00895CF938A3019F40E941F092AC08F
S1131370C0EEC80F8091C8028B5F8093C802809131
S1131380C8028D3778F00E941F090CC0FC01E20FDF
S1131390F31FE491E095EC932F5F3F4F2530310527
S11313A0A9F710C08C2F90E09C01220F331F220F4D
S11313B0331F820F931F20E030E08F519E4FAFE028
S11313C0B2E1E4CFCF910895CF93DF93EC0188810C
S11313D0882331F021960E94B20989918111FBCFB3
S11313E0DF91CF910895CF93DF93EC01FC018491B9
S11313F0882339F00E94B2092196FE01849181115B
S1131400F9CFDF91CF9108959CBF80B981B18869EC
S113141081B98CB786688CBF0895159BFECF83B9BC
S11314200895CF93C82F8A3019F48DE00E940D0AD5
S11314308C2F0E940D0A80E090E0CF91089597FBD5
S1131440072E16F4009407D077FD09D00E94420AB3
S113145007FC05D03EF4909581959F4F08957095B3
S113146061957F4F0895A29FB001B39FC001A39FD0
S1131470700D811D1124911DB29F700D811D1124C9
S1131480911D0895AA1BBB1B51E107C0AA1FBB1FD6
S1131490A617B70710F0A61BB70B881F991F5A95FC
S11314A0A9F780959095BC01CD010895FB01DC015D
S11314B08D91019080190110D9F3990B0895FB01C6
S11314C0DC014150504030F08D910190801919F4A5
S11314D00020B9F7881B990B0895A0E0B0E0E3E77A
S11314E0FAE00C949B106B014A017901D90113961F
S11314F02C9121FF1DC0C0E0D0E0C815D905D9F05A
S11315008C015C01AC0CBD1CC8010A151B0571F0F3
S11315100F5F1F4FD7011896ED91FC911997B701F2
S1131520DC018C910995892B79F305C02196E5CFCF
S113153080E090E001C0CE01CDB7DEB7ECE00C94C2
S1131540B710A0E0B0E0E7EAFAE00C94A510FE01C1
S1131550359661917191AF018091DF029091E00223
S11315600E94FB0AE2E00C94C1100F931F93CF93E7
S1131570DF93E091DF02F091E002238121FF1BC0A1
S1131580EC0100E010E089916091DF027091E002CB
S1131590DB011896ED91FC911997882331F0099598
S11315A0892B89F30FEF1FEFEECF8AE00995892B82
S11315B011F4C80102C08FEF9FEFDF91CF911F910B
S11315C00F910895AEE0B0E0E8EEFAE00C94A510B7
S11315D085E08C838B899C899A838983AE01495EDB
S11315E05F4F6D897E89CE0101960E944B0E2E9627
S11315F0E2E00C94C110ACE0B0E0E1E0FBE00C945C
S113160095107C016B018A01FC011782168283818B
S113161081FFBDC1CE0101964C01F7019381F60112
S113162093FD859193FF81916F01882309F4ABC1E8
S1131630853239F493FD859193FF81916F01853251
S113164029F4B70190E00E94E90FE7CF512C312C27
S113165020E02032A0F48B3269F030F4803259F06B
S1131660833269F420612CC08D3239F0803339F42F
S1131670216026C02260246023C0286021C027FD89
S113168027C030ED380F3A3078F426FF06C0FAE070
S11316905F9E300D1124532E13C08AE0389E300D06
S11316A01124332E20620CC08E3221F426FD6BC12E
S11316B0206406C08C3611F4206802C0883641F4D8
S11316C0F60193FD859193FF81916F018111C1CF43
S11316D0982F9F7D9554933028F40C5F1F4FFFE3A0
S11316E0F9830DC0833631F0833771F0833509F007
S11316F05BC022C0F801808189830E5F1F4F4424A0
S11317004394512C540115C03801F2E06F0E711C42
S1131710F801A080B18026FF03C0652D70E002C0EF
S11317206FEF7FEFC5012C870E94A00F2C0183016E
S11317302C852F77222E17C03801F2E06F0E711C12
S1131740F801A080B18026FF03C0652D70E002C0BF
S11317506FEF7FEFC5012C870E94950F2C012C851C
S11317602068222E830123FC1BC0832D90E04816A1
S11317705906B0F4B70180E290E00E94E90F3A9470
S1131780F4CFF50127FC859127FE81915F01B70114
S113179090E00E94E90F31103A94F1E04F1A510899
S11317A04114510471F7E5C0843611F0893639F5D6
S11317B0F80127FF07C060817181828193810C5FEA
S11317C01F4F08C060817181882777FD8095982F0D
S11317D00E5F1F4F2F76B22E97FF09C0909580950C
S11317E0709561957F4F8F4F9F4F2068B22E2AE0EE
S11317F030E0A4010E943410A82EA81844C08537F4
S113180029F42F7EB22E2AE030E025C0F22FF97F92
S1131810BF2E8F36C1F018F4883579F0B4C0803704
S113182019F0883721F0AFC02F2F2061B22EB4FEFB
S11318300DC08B2D8460B82E09C024FF0AC09F2FD1
S11318409660B92E06C028E030E005C020E130E003
S113185002C020E132E0F801B7FE07C06081718167
S1131860828193810C5F1F4F06C06081718180E08B
S113187090E00E5F1F4FA4010E943410A82EA818F8
S1131880FB2DFF77BF2EB6FE0BC02B2D2E7FA5148C
S113189050F4B4FE0AC0B2FC08C02B2D2E7E05C045
S11318A07A2C2B2D03C07A2C01C0752C24FF0DC07B
S11318B0FE01EA0DF11D8081803311F4297E09C0F7
S11318C022FF06C07394739404C0822F867809F0B3
S11318D0739423FD13C020FF06C05A2C731418F40C
S11318E0530C5718732C731468F4B70180E290E01A
S11318F02C870E94E90F73942C85F5CF731410F490
S1131900371801C0312C24FF12C0B70180E390E0E6
S11319102C870E94E90F2C8522FF17C021FF03C0EA
S113192088E590E002C088E790E0B7010CC0822F00
S1131930867859F021FD02C080E201C08BE227FDC8
S11319408DE2B70190E00E94E90FA51438F4B701C5
S113195080E390E00E94E90F5A94F7CFAA94F4012F
S1131960EA0DF11D8081B70190E00E94E90FA110FA
S1131970F5CF332009F451CEB70180E290E00E9404
S1131980E90F3A94F6CFF7018681978102C08FEF71
S11319909FEF2C96E2E10C94B11020FD09C0FC01EC
S11319A023FD05C022FF02C07383628351834083F9
S11319B0089544FD10C046FD10C0DB01FC01AA0FD0
S11319C0BB1FEE1FFF1F1094D1F76A0F7B1F8E1FE2
S11319D09F1F31E003C033E001C034E0660F771F7E
S11319E0881F991F3150D1F7620F711D811D911D00
S11319F008950F931F93CF93DF938C01C8010E9426
S1131A00AB0FEC0197FD08C00E94820F892BB1F740
S1131A10B801CE010E941B10CE01DF91CF911F911E
S1131A200F9108958F929F92AF92CF92DF92EF928F
S1131A30FF920F931F93CF93DF93EC01A62E4A01DD
S1131A40022F0E94AB0FAC0155274B32510521F0F8
S1131A504D32510551F40068AA9411F480E067C036
S1131A60CE010E94AB0F97FDF9CF102F1D7F302FB1
S1131A70307301F58033F1F4FF24FA94FA0C09F47D
S1131A8042C0CE010E94AB0F97FD3DC0382F3F7D71
S1131A90383551F41264AA94AA94A9F1CE010E9493
S1131AA0AB0F97FF07C02FC006FF02C0126001C032
S1131AB01261AF2CC12CD12C760120ED280F2830D7
S1131AC080F014FF04C0BE010E941B1019C02A300C
S1131AD040F016FFF8CF2F7D3FEE320F363098F7E7
S1131AE02750412FC701B6010E94D90C6B017C011C
S1131AF01260AA9459F0CE010E94AB0F97FFDDCF7C
S1131B0011FD04C0ABCFC12CD12C760117FF08C046
S1131B10F094E094D094C094C11CD11CE11CF11C3D
S1131B20212FB701A601C4010E94CD0C81E0DF91F1
S1131B30CF911F910F91FF90EF90DF90CF90AF90D6
S1131B409F908F900895A1E2B0E0E9EAFDE00C9443
S1131B509A105C017A018E010F5F1F4F680180E2C9
S1131B60D8011D928A95E9F7F501738040E050E0B1
S1131B70812CB0E0912C81E090E0F90173FCA591F7
S1131B8073FEA1918F017A2F9F01A11103C080E000
S1131B9090E07DC0AE3519F44115510559F1E92D98
S1131BA0F0E0E417F5073CF4AD3569F1AD3219F412
S1131BB0BB2319F103C0B11101C08A2EE72FE695AA
S1131BC0E695E69586010E0F111DF801A72FA77063
S1131BD08C0102C0000F111FAA95E2F7D801B08151
S1131BE0BA2BB083781559F0781510F47F5FE6CFDF
S1131BF07150E4CF9924939403C0B1E001C0B0E0E4
S1131C004F5F5F4FBACFBB2319F08E8180628E8302
S1131C10911003C09924939415C0F601CE018196C6
S1131C20208120952193E817F907D1F7F3CFE11428
S1131C30F10429F0D7018C93F70131967F016150AB
S1131C4001F1912CC50169A30E94AB0F69A197FD15
S1131C5016C0282F269526952695F601E20FF11D2C
S1131C60208130E0AC014770552702C03595279597
S1131C704A95E2F720FDDBCFB5010E941B109110BD
S1131C8086CFE114F10411F0D7011C92C801A1968A
S1131C90EDE00C94B6104F925F927F928F929F92D8
S1131CA0AF92BF92CF92DF92EF92FF920F931F9366
S1131CB0CF93DF931F92CDB7DEB78C012B017A014E
S1131CC0FC0117821682A12CF801D380F201D3FC07
S1131CD08591D3FE8191382F2F01882309F4FCC00C
S1131CE090E039830E94820F3981892B21F0C80149
S1131CF00E94F90CE9CF353241F4F201D3FC35915D
S1131D00D3FE31912F01353269F4C80139830E9421
S1131D10AB0F398197FDDEC03817B1F2B8010E94CC
S1131D201B10DAC03A3241F4D3FC3591D3FE319121
S1131D302F01BB24B39401C0B12C712C20ED230FCF
S1131D402A3090F4FB2DF260BF2E672D70E080E006
S1131D5090E040E20E94D90C762EF201D3FC35913A
S1131D60D3FE31912F01EACFB1FE03C0711003C03D
S1131D70B3C077247A94383619F03C3661F014C035
S1131D80F201D3FC3591D3FE31912F01383661F441
S1131D90FB2DF860BF2E8B2D8460B82EF201D3FC8E
S1131DA03591D3FE31912F01332309F495C0632F6C
S1131DB070E08CEB93E039830E948A0F3981892B80
S1131DC009F48AC0B0FC07C0F701C080D180C70104
S1131DD002967C0102C0C12CD12C3E3651F4F8018C
S1131DE04681578160E070E02B2DC6010E94CD0C26
S1131DF06BCF3336A1F4B1FC02C077247394C801CD
S1131E000E94AB0F97FD66C0C114D10429F0F601FE
S1131E108083C60101966C017A9489F757C03B35DB
S1131E2059F49201A601672DC8010E94A30D2C014B
S1131E30009709F04BC045C0C80139830E94F90CD2
S1131E40398197FD47C03F3669F128F4343631F1C2
S1131E50393679F12BC0333769F03537F9F026C0BC
S1131E60C114D10429F0F6018082C60101966C01E7
S1131E707A9471F0C8010E94AB0F4C0197FD08C021
S1131E800E94820F892B61F3B801C4010E941B10C8
S1131E90C114D104D9F0F601108218C0FB2DF062F0
S1131EA0BF2E07C08B2D8061B82E03C09B2D90647C
S1131EB0B92E2B2DA601672DC8010E94120D811188
S1131EC005C0F8018381807329F406C0B0FCFCCE00
S1131ED0A394FACEAA2019F08A2D90E002C08FEFC5
S1131EE09FEF0F90DF91CF911F910F91FF90EF9093
S1131EF0DF90CF90BF90AF909F908F907F905F9036
S1131F004F90089591110EC1803219F08950855077
S1131F10D0F70895FC010590061621F00020D9F7AA
S1131F20C00108953197CF010895FC0105906150D7
S1131F3070400110D8F7809590958E0F9F1F0895DB
S1131F40FC016150704001900110D8F78095909584
S1131F508E0F9F1F0895CF93DF93EC012B8120FFF9
S1131F6033C026FF0AC02F7B2B838E819F8101966D
S1131F709F838E838A8190E029C022FF0FC0E8816D
S1131F80F9818081992787FD9095009719F4206243
S1131F902B831AC03196F983E8830EC0EA85FB854A
S1131FA0099597FF09C02B81019611F480E101C0C6
S1131FB080E2822B8B8308C02E813F812F5F3F4FAD
S1131FC03F832E83992702C08FEF9FEFDF91CF913C
S1131FD008950F931F93CF93DF93182F092FEB01CD
S1131FE08B8181FD03C08FEF9FEF20C082FF10C063
S1131FF04E815F812C813D81421753077CF4E88137
S1132000F9819F012F5F3F4F39832883108306C0D6
S1132010E885F985812F0995892B29F72E813F8140
S11320202F5F3F4F3F832E83812F902FDF91CF91DE
S11320301F910F910895FB01238120FF12C026FDFB
S113204010C08F3F3FEF930761F082832F7D2064A0
S113205023832681378121503109378326839927A9
S113206008958FEF9FEF0895FA01AA27283051F1C0
S1132070203181F1E8946F936E7F6E5F7F4F8F4FB5
S11320809F4FAF4FB1E03ED0B4E03CD0670F781F14
S1132090891F9A1FA11D680F791F8A1F911DA11DF9
S11320A06A0F711D811D911DA11D20D009F4689432
S11320B03F912AE0269F11243019305D3193DEF6DA
S11320C0CF010895462F4770405D4193B3E00FD090
S11320D0C9F7F6CF462F4F70405D4A3318F0495D7B
S11320E031FD4052419302D0A9F7EACFB4E0A6955E
S11320F09795879577956795BA95C9F70097610580
S1132100710508959B01AC010A2E069457954795D5
S113211037952795BA95C9F7620F731F841F951FCA
S1132120A01D08959927882708952F923F924F92D2
S11321305F926F927F928F929F92AF92BF92CF9253
S1132140DF92EF92FF920F931F93CF93DF93CDB75C
S1132150DEB7CA1BDB0B0FB6F894DEBF0FBECDBFD4
S113216009942A88398848885F846E847D848C84A5
S11321709B84AA84B984C884DF80EE80FD800C81AE
S11321801B81AA81B981CE0FD11D0FB6F894DEBF91
S10F21900FBECDBFED010895F894FFCF01
S113219C0000000200000000110A00000000000012
S11321AC000200000000A609000000000100D30199
S11321BC0A0D4552524F5220554E41424C45205423
S11321CC4F20454E54455220434F4E464947204DCF
S11321DC4F44450A0D000A0D20434F4E46494720F3
S11321EC4D4F44452041434849455645440A0D004A
S11321FC496E746F204465627567206D6F64650069
S113220C496E746F204F6E6C696E652074756E6EBA
S113221C696E6700557361727420736179732068F9
S113222C656C6C6F210A0068656C6C6F20776F723B
S113223C6C6421210A0064617461205472616E3AE9
S113224C2025642C20783A2533642C20793A2533C4
S113225C642C207472616E783A2025642C202564D9
S113226C2C2025642C2025642C20256400526563C5
S113227C6569766520446174613A202533692C20A4
S113228C2533692C2053503A202535642C20454E97
S113229C433A202535640A00257300650A00730A45
S11322AC00660A00710A00636F6E6669670A00496A
S11322BC6E746F2050494420636F6E666967206D9D
S11322CC6F64650043757272656E74204B702532B1
S11322DC642C204B692532642C204B642532640019
S11322EC706C61790A00496E746F20506C617920AE
S11322FC6D6F64650064656275670A006B7020001D
S113230C6B702025640A006E6577206B703A20256B
S113231C32640A006B6920006B692025640A006E24
S113232C6577206B693A202532640A006B642000BF
S113233C6B642025640A006E6577206B643A202553
S107234C32640A00E9
S9030000FC
