S011000068656C6C6F5F6176722E7372656357
S11300000C94CE010C9406070C94EB010C94EF06AF
S11300100C94EB010C94EB010C94EB010C94EB01AC
S11300200C94EB010C94EB010C94EB010C94EB019C
S11300300C94EB010C94EB010C94EB010C94EB018C
S11300400C94EB010C94EB010C94EB010C94EB017C
S11300500C941D070C94EB010C94EB010C94EB0134
S11300600C94EB010C94EB010C94EB010C94EB015C
S11300700701B301B3015801B3018A0495047072F6
S1130080657373207120666F7220646562756720E2
S1130090696E666F000703B301AD007C01B3018A8A
S11300A004000054756E696E67204B640007029566
S11300B000C5007C01B3018A04000054756E696EAA
S11300C067204B69000701AD00B3017C01B3018ACD
S11300D004000054756E696E67204B70000703B30B
S11300E001F5009901B3018A0400004175746F2081
S11300F0506C6179000702DD0018019901B3018A8F
S1130100040000506C6179207769746820536D6134
S1130110727450686F6E65000701F500B3019901B0
S1130120B3018A040000506C6179207769746820F7
S11301304A6F79737469636B001405B3015801B392
S113014001B3018A04000043616E20616C6D6F731A
S11301507420646F6E6521000F0439017C01B301C2
S113016070008A0400004F6E2074686520466C7924
S113017020446562756767696E6721000A03580148
S11301809901B301C5008A0400004F6E6C696E6565
S11301902054756E696E67210005027C01B301B3BA
S11301A00118018A0400004C6574277320506C61A7
S11301B079210000000000000000000000000000A1
S11301C000000000000000005E0000000E000E00B1
S11301D0287C287C2808547C542026100864002895
S11301E05428400000000E0000003C420000004281
S11301F03C0000005438540010107C101000806043
S1130200200010101010000060600000201008048E
S113021000003C423C0000447E40004462524C00DA
S1130220224A4A360018147E10002E4A4A32003CF4
S11302304A4A300002621A0600344A4A34000C5218
S1130240523C00006C6C0000806C2C0000001028F4
S11302504400282828280000442810000004520CD8
S1130260003C425A1C007C12127C007E4A4A340034
S11302703C424224007E42423C007E4A4A42007E86
S11302800A0A02003C425274007E08087E000042C2
S11302907E42002040403E007E182442007E4040C2
S11302A040007E0C0C7E007E0C307E003C42423CC2
S11302B0007E12120C003C6242BC007E12324C00E2
S11302C0244A52240000027E02003E40403E001EAA
S11302D060601E007E30307E006618186600000ED6
S11302E0700E0062524A4600007E4242000408102A
S11302F020000042427E00000402040040404040CE
S113030000000204000030482878007E484830008D
S113031030484800003048487E00306858100010CB
S11303207C12040050A8A898007E080870000048B9
S11303307A40000040807A007E1028400000427E0F
S11303404000781018700078080870003048483071
S113035000F848483000304848F800780808100091
S11303605058682800083E48400038404078000053
S1130370384038007860607800483030480018A071
S1130380403800486858480000083C420000007E9D
S1130390000000423C0800040204020011241FBEB5
S11303A0CFEFD4E0DEBFCDBF12E0A0E0B1E0E0E2E9
S11303B0FAE102C005900D92A038B107D9F722E006
S11303C0A0E8B2E001C01D92A13BB207E1F70E9490
S11303D0B8040C940E0D0C940000FC01FC5E8083A8
S11303E026EA2A95F1F700C08091001490E036EADD
S11303F03A95F1F700C020910014820F911D26EA6E
S11304002A95F1F700C02091001436EA3A95F1F7E5
S113041000C0820F911D63E070E00E947609862F70
S11304200895809100148AE090E020E030E0E0E05C
S1130430F4E14081240F311DA7EAB1E61197F1F7E9
S113044000C0000001970097A1F7ADECBCEC0E943E
S11304508A09969587959695879596958795089593
S113046085B7806885BF80B7806280BF86E090E0F2
S11304700E9411028093810280E18A95F1F700C005
S113048084E090E00E9411028093800280E18A95CA
S1130490F1F700C00895CF9386E090E00E94ED014B
S11304A0C82F84E090E00E94ED016C2F782F80E04B
S11304B0CF91089587B3806B87BBC49A8DB1806553
S11304C08DB90895813011F4C4980895C49A08959B
S11304D08FB9779BFECF8FB1089581E00E946202AD
S11304E080EC0E94680280E00E946202089581E02C
S11304F00E94620285E00E9468028CE20E94680207
S11305008FEF0E94680280E00E94680280E00E94EF
S113051062020895EF92FF920F931F93CF93DF939C
S1130520C82FD62F042FE22E132F81E00E946202DF
S113053083E00E9468028C2F8295807F0F2EF0E367
S1130540FF2EF02DF80E8F2D0E94680280E00E948D
S1130550680280E00E94620281E00E94620282E0FE
S11305600E9468028F2D0E94680283E00E94680244
S113057080E00E94620281E00E94620282E00E94A6
S11305806802C295C07F81E38C0F0E9468028D2FA0
S11305908695869586950E94680280E00E94620294
S11305A081E00E94620282E00E94680282E38C0F72
S11305B00E9468028D2F8295880F807E0E946802B7
S11305C080E00E94620281E00E94620282E00E9456
S11305D0680285E38C0F0E946802802F8F700E944E
S11305E0680280E00E94620281E00E94620282E06E
S11305F00E94680286E38C0F0E946802002349F07F
S1130600CE2DD12F10E089910E9468021F5F101334
S1130610FACF80E00E94620281E00E94620282E0DE
S11306200E9468028F2D0E94680288E00E9468027E
S113063080E00E9462020E947702DF91CF911F91B5
S11306400F91FF90EF900895CF93C62F0E946802F8
S11306508C2F0E946802CF9108958F929F92AF923F
S1130660BF92CF92DF92EF92FF920F931F93CF939B
S1130670DF93CDB7DEB72E970FB6F894DEBF0FBE6B
S1130680CDBF6C015B01842E952E8E010F5F1F4F31
S11306908EE0F80111928A95E9F781E00E946202E6
S11306A080EB0E94680280E00E94680280E00E9461
S11306B06802F82E80E00E94620281E00E946202D9
S11306C083E00E9468028F2D8295869586958370BB
S11306D0815A0E9468027E01FFE0EF0EF11C80E067
S11306E00E946802F80181938F01EE15FF05B9F7A6
S11306F08A81880F880F880FF60180838B81829509
S11307008695877081838E81F5018083FE013796FB
S1130710A82DB92D81918D93EE16FF06D9F70E946D
S113072077022E960FB6F894DEBF0FBECDBFDF91D1
S1130730CF911F910F91FF90EF90DF90CF90BF90DA
S1130740AF909F908F90089581E00E94620283E0B1
S11307500E9468028EEF0E94680280E00E94680294
S11307600895CF93C82F0E946D0281E00E94620217
S113077082E00E94680260E88FEF0E94240380E018
S11307800E9462020E94A403829586958770843039
S113079049F02EE131E03F932F930E941E0A0F90FF
S11307A00F9008C024E431E03F932F930E941E0A67
S11307B00F900F9088E194E00197F1F700C00000DA
S11307C081E00E94620282E00E94680260E080E2AE
S11307D00E94240380E00E94620288E194E0019771
S11307E0F1F700C0000081E00E94620282E00E94F2
S11307F0680260E084E20E94240380E00E946202B6
S113080088E194E00197F1F700C0000081E00E94C4
S1130810620282E00E94680260E081E20E94240396
S113082080E00E94620288E194E00197F1F700C041
S1130830000081E00E94620282E00E94680260E09F
S113084085E20E94240380E00E94620288E194E031
S11308500197F1F700C0000081E00E94620282E08B
S11308600E94680263E08BE20E94240380E00E94FD
S1130870620288E194E00197F1F700C0000081E092
S11308800E94620282E00E94680263E08AE20E949F
S1130890240380E00E94620288E194E00197F1F76A
S11308A000C0000081E00E94620282E00E946802AF
S11308B061ED89E20E94240380E00E94620288E1E3
S11308C094E00197F1F700C0000081E00E94620209
S11308D082E00E94680261E488E20E94240380E0CE
S11308E00E94620288E194E00197F1F700C00000E1
S11308F081E00E94620282E00E9468026C2F62958D
S1130900660F607E8FEF0E94240380E00E946202E3
S1130910CF910895CF93DF93EA010E946508CE0139
S11309200E944A09DF91CF91089560E086E00E9419
S113093065088EE591E00E94320A81E090E0909390
S11309408D0280938C020895CF93DF93EA010E9475
S11309506508CE010E94B808DF91CF910895F894FC
S1130960C09880E090EF0197F1F7C09A78940895C9
S1130970CF93DF93CDB7DEB7A0970FB6F894DEBF61
S11309800FBECDBF8EE091E09093AE028093AD0296
S11309908FE190E00E945B0920E031E042E150E009
S11309A061E070E08EE691E00E94EA090E9432085C
S11309B00E94C90881E891E00E943B090E9430022C
S11309C081E087BB88BB78948BB780668BBF85B783
S11309D0826085BF0E945A020E946D0280E090E00E
S11309E00E94B10384EA94E00E94270889EC98E00D
S11309F00E9468070E94C90889E991E00E94E707FC
S1130A000E947F0789E991E00E94E70788E08C87CC
S1130A1085E08D878E875E0123E1A20EB11C8E01D5
S1130A20085F1F4F8A2C9B2C0F2EF0E9CF2EF1E08C
S1130A30DF2EF02D0F2EF7ECEF2EF1E0FF2EF02D30
S1130A4080918E02833031F128F4813049F0823074
S1130A50A1F03CC0843059F1853009F435C036C06A
S1130A600E9463070496FC01859194910E94E70714
S1130A7010928D0210928C0229C010928D02109255
S1130A808C020E9463070296FC01859194910E9456
S1130A90E7071CC00E9463070696FC0185919491A8
S1130AA00E94E70710928D0210928C020FC00E94E0
S1130AB063070896FC01859194910E94E7071092C0
S1130AC08D0210928C0202C00E946D0710928E0259
S1130AD00E944B02762E672E582E8FEF9FED21E059
S1130AE0815090402040E1F700C0000019867A86CA
S1130AF0862D80958B879E01275F3F4F48E065E0F8
S1130B0080E00E948A028091880290918902892B58
S1130B1069F01092890210928802AE014F5F5F4F14
S1130B2060E070E0CE0141960E942D0320918C027A
S1130B3030918D02232B09F463C061E085E00E94AB
S1130B4065088A8588231CF490E09A9501C090E09A
S1130B509C8B8B8B88891F928F938F851F928F9389
S1130B608E851F928F938D851F928F938C851F92F4
S1130B708F935F926F921F927F9289851F928F93BA
S1130B80DF92CF920E941E0A64E085E00E9465080D
S1130B90FE013196A82DB92D0FB6F894DEBF0FBE15
S1130BA0CDBF819188231CF490E09A9501C090E018
S1130BB08D939D93E017F107A1F78E8190E0982F14
S1130BC088272F81820F911D9F938F938C8190E0B2
S1130BD0982F88272D81820F911D9F938F938E8943
S1130BE08F938D898F938C898F938B898F93FF92A9
S1130BF0EF920E941E0A0FB6F894DEBF0FBECDBF5F
S1130C008091860290918702892B31F0109287029D
S1130C10109286020E94AF04809184029091850212
S1130C20892B09F40DCF60E080E00E94650887E914
S1130C3092E09F938F9382EF91E09F938F930E9412
S1130C401E0A109285021092840267E972E085EF11
S1130C5091E00E94CB090F900F900F900F90892B79
S1130C6021F481E080938E027FC067E972E08CE713
S1130C7092E00E94CB09892B21F482E080938E02BA
S1130C8073C067E972E088EF91E00E94CB09892B79
S1130C9021F483E080938E0267C067E972E08BEFF2
S1130CA091E00E94CB09892B21F484E080938E0289
S1130CB05BC067E972E08EEF91E00E94CB09892B5B
S1130CC021F485E080938E024FC067E972E081E0F1
S1130CD092E00E94CB09892B79F510928D02109233
S1130CE08C0285EC90E00E94E70760E086E00E94B9
S1130CF0650889E092E00E94320A65E082E00E9481
S1130D0065088E851F928F938D851F928F938C8596
S1130D101F928F938EE192E09F938F930E941E0AFD
S1130D2081E090E090938B0280938A020FB6F8944E
S1130D30DEBF0FBECDBF18C067E972E08AE392E060
S1130D400E94CB09892B81F410928D0210928C029F
S1130D5088E191E00E94E70760E086E00E94650870
S1130D6080E492E00E94320A67E972E08FE492E044
S1130D700E94CB09892B31F480E790E00E94E707B9
S1130D800E946D0780918A0290918B02892B09F44D
S1130D9057CE86E592E00E94320A43E050E067E9CC
S1130DA072E082E692E00E94D409892B09F03CCEDD
S1130DB086E692E00E94320A8AE992E00E94AD0936
S1130DC08C8799279F938F9383E792E09F938F93C8
S1130DD00E941E0A0F900F900F900F9020CE1F922A
S1130DE00F920FB60F9211248F939F9381E090E09E
S1130DF090938902809388028AB78F7D8ABF9F91DE
S1130E008F910F900FBE0F901F9018951F920F9205
S1130E100FB60F9211248F939F9381E090E09093EB
S1130E208702809386028AB78F7B8ABF9F918F91B6
S1130E300F900FBE0F901F9018951F920F920FB630
S1130E400F9211242F938F939F93EF93FF9380918D
S1130E50840290918502892B61F583B1E09182022D
S1130E60F0918302E956FD4F8083179880918202A6
S1130E7090918302FC01E956FD4F20812D3029F029
S1130E802A3019F0833191057CF0FC01E956FD4FBD
S1130E901182109283021092820281E090E090937A
S1130EA085028093840205C0019690938302809307
S1130EB08202FF91EF919F918F912F910F900FBE1E
S1130EC00F901F90189580911C0190911D01089519
S1130ED090939202809391020895E0911C01F09105
S1130EE01D0181E0E33BF80749F0309739F03C9667
S1130EF085919491009711F0FC0109950895CF9381
S1130F00DF93C0911C01D0911D0121E0C33BD207A6
S1130F1009F45AC0209709F457C0CE010496FC0185
S1130F2025913491235B3140A9F0FC012591349142
S1130F30232B81F0FC0185919491EC010496FC0132
S1130F4025913491235B314029F0FC0125913491A2
S1130F50232B81F7209193023091940221153105BE
S1130F6009F432C0FE0131966491FE018491AE0110
S1130F70425F5F4FF90109952296FE018591949194
S1130F80835B914009F1FE0185919491892BE1F0F5
S1130F90FE01C591D491FE0131966491FE018491C4
S1130FA0AE01425F5F4FE0919302F0919402099584
S1130FB02296FE0185919491835B914029F0FE0174
S1130FC085919491892B21F7DF91CF910895CF9347
S1130FD0DF9321E0833B920709F436C0009709F4BC
S1130FE033C0E0911C01F0911D01F0939002E09355
S1130FF08F0290931D0180931C01369625913491A4
S11310000696FC01859194912817390729F0E091FF
S11310109102F09192020995E0911C01F0911D0159
S11310203A96C591D4910E947F07209769F0409128
S11310301C0150911D01FA0131966491FA018491C9
S1131040425F5F4FFE010995DF91CF910895909320
S113105094028093930280911C0190911D010E943F
S1131060E707089585B7806885BF80B7806280BF31
S1131070EFE0F0E18EEA808381EA80838AED808369
S113108082E1808388EC808388EA80838FE3808395
S113109085ED808380E8808381E8808380E5808398
S11310A089ED808381E2808380E2808310828BEDEE
S11310B0808380E380838DEA8083108284EA808346
S11310C086EA80838FEA80830895809396026093F2
S11310D09502EFE0F0E191E2908380838FE78083D3
S11310E082E28083608386E0808308958091950204
S11310F08F5F8093950280919502873010F0109253
S113110095026091950280E00E9465080895CF934E
S11311108A3019F40E94760829C0C0EEC80F809165
S113112096028B5F80939602809196028D3770F0C1
S11311300E9476080BC0FC01E20FF31FE491EC93CC
S11311402F5F3F4F25303105B1F710C08C2F90E051
S11311509C01220F331F220F331F820F931F20E0A5
S113116030E08F539E4FAFE0B2E1E5CFCF910895C9
S1131170CF93DF93EC01FC018491882339F00E9422
S113118087082196FE0184918111F9CFDF91CF91D7
S113119008951092960210929502EFE0F0E18EEA23
S11311A0808380E28083108281E2808310828FE7D3
S11311B0808382E28083108287E0808380E480835E
S11311C080E094E0EFE0F2E1108201970097E1F70C
S11311D0EFE0F0E181E2808310828FE7808382E296
S11311E08083108286E080838CE780838FEA80830B
S11311F060E080E00E94650808958D3011F08A3027
S113120019F40E94760802C00E94870880E090E0EA
S11312100895CF938A3019F40E9476082AC0C0EE4C
S1131220C80F809196028B5F8093960280919602FC
S11312308D3778F00E9476080CC0FC01E20FF31F92
S1131240E491E095EC932F5F3F4F25303105A9F7EA
S113125010C08C2F90E09C01220F331F220F331FEC
S1131260820F931F20E030E08F539E4FAFE0B2E136
S1131270E4CFCF910895CF93DF93EC018881882345
S113128031F021960E94090989918111FBCFDF91E8
S1131290CF910895CF93DF93EC01FC0184918823CF
S11312A039F00E9409092196FE0184918111F9CF38
S11312B0DF91CF9108959CBF80B981B1886981B9CC
S11312C08CB786688CBF0895159BFECF83B90895AB
S11312D0CF93C82F8A3019F48DE00E9464098C2FB3
S11312E00E94640980E090E0CF91089597FB072E57
S11312F016F4009407D077FD09D00E94990907FCE1
S113130005D03EF4909581959F4F08957095619511
S11313107F4F0895A29FB001B39FC001A39F700D9A
S1131320811D1124911DB29F700D811D1124911DE9
S11313300895AA1BBB1B51E107C0AA1FBB1FA61718
S1131340B70710F0A61BB70B881F991F5A95A9F76A
S113135080959095BC01CD010895FC0188279927BB
S1131360E89421912032E9F3293010F02E30C8F3AB
S11313702B3241F02D3239F4689404C00E94E20902
S1131380820F911D219120532A30C0F31EF49095B1
S113139081959F4F0895FB01DC018D910190801987
S11313A00110D9F3990B0895FB01DC014150504021
S11313B030F08D910190801919F40020B9F7881B41
S11313C0990B08957AE0979F902D879F802D910D1A
S11313D011240895A0E0B0E0E0EFF9E00C94DD0CF6
S11313E06B014A017901D90113962C9121FF1DC08B
S11313F0C0E0D0E0C815D905D9F08C015C01AC0C73
S1131400BD1CC8010A151B0571F00F5F1F4FD701E2
S11314101896ED91FC911997B701DC018C9109950F
S1131420892B79F305C02196E5CF80E090E001C0D7
S1131430CE01CDB7DEB7ECE00C94F90CA0E0B0E03F
S1131440E4E2FAE00C94E70CFE01359661917191A7
S1131450AF018091AD029091AE020E945F0AE2E07A
S11314600C94030D0F931F93CF93DF93E091AD0280
S1131470F091AE02238121FF1BC0EC0100E010E0DB
S113148089916091AD027091AE02DB011896ED91E5
S1131490FC911997882331F00995892B89F30FEF73
S11314A01FEFEECF8AE00995892B11F4C80102C021
S11314B08FEF9FEFDF91CF911F910F910895ACE0D3
S11314C0B0E0E5E6FAE00C94D70C7C016B018A01EC
S11314D0FC0117821682838181FFBDC1CE01019672
S11314E04C01F7019381F60193FD859193FF81915E
S11314F06F01882309F4ABC1853239F493FD8591DA
S113150093FF81916F01853229F4B70190E00E9425
S1131510470CE7CF512C312C20E02032A0F48B3241
S113152069F030F4803259F0833269F420612CC0C0
S11315308D3239F0803339F4216026C02260246072
S113154023C0286021C027FD27C030ED380F3A3072
S113155078F426FF06C0FAE05F9E300D1124532E66
S113156013C08AE0389E300D1124332E20620CC043
S11315708E3221F426FD6BC1206406C08C3611F432
S1131580206802C0883641F4F60193FD859193FFEB
S113159081916F018111C1CF982F9F7D9554933014
S11315A028F40C5F1F4FFFE3F9830DC0833631F03D
S11315B0833771F0833509F05BC022C0F801808164
S11315C089830E5F1F4F44244394512C540115C04A
S11315D03801F2E06F0E711CF801A080B18026FF83
S11315E003C0652D70E002C06FEF7FEFC5012C874B
S11315F00E943C0C2C0183012C852F77222E17C0CE
S11316003801F2E06F0E711CF801A080B18026FF52
S113161003C0652D70E002C06FEF7FEFC5012C871A
S11316200E94310C2C012C852068222E830123FC7E
S11316301BC0832D90E048165906B0F4B70180E230
S113164090E00E94470C3A94F4CFF50127FC859171
S113165027FE81915F01B70190E00E94470C311091
S11316603A94F1E04F1A51084114510471F7E5C05E
S1131670843611F0893639F5F80127FF07C06081F7
S11316807181828193810C5F1F4F08C060817181D9
S1131690882777FD8095982F0E5F1F4F2F76B22EE7
S11316A097FF09C090958095709561957F4F8F4FF6
S11316B09F4F2068B22E2AE030E0A4010E94790CEA
S11316C0A82EA81844C0853729F42F7EB22E2AE00C
S11316D030E025C0F22FF97FBF2E8F36C1F018F409
S11316E0883579F0B4C0803719F0883721F0AFC05D
S11316F02F2F2061B22EB4FE0DC08B2D8460B82E26
S113170009C024FF0AC09F2F9660B92E06C028E0A6
S113171030E005C020E130E002C020E132E0F80111
S1131720B7FE07C060817181828193810C5F1F4F76
S113173006C06081718180E090E00E5F1F4FA401BC
S11317400E94790CA82EA818FB2DFF77BF2EB6FE99
S11317500BC02B2D2E7FA51450F4B4FE0AC0B2FC8E
S113176008C02B2D2E7E05C07A2C2B2D03C07A2C7D
S113177001C0752C24FF0DC0FE01EA0DF11D80810E
S1131780803311F4297E09C022FF06C07394739438
S113179004C0822F867809F0739423FD13C020FFC0
S11317A006C05A2C731418F4530C5718732C731462
S11317B068F4B70180E290E02C870E94470C739490
S11317C02C85F5CF731410F4371801C0312C24FF85
S11317D012C0B70180E390E02C870E94470C2C854F
S11317E022FF17C021FF03C088E590E002C088E70C
S11317F090E0B7010CC0822F867859F021FD02C019
S113180080E201C08BE227FD8DE2B70190E00E94E7
S1131810470CA51438F4B70180E390E00E94470C0C
S11318205A94F7CFAA94F401EA0DF11D8081B7010F
S113183090E00E94470CA110F5CF332009F451CE5B
S1131840B70180E290E00E94470C3A94F6CFF7018A
S11318508681978102C08FEF9FEF2C96E2E10C9472
S1131860F30CFC010590615070400110D8F780958D
S113187090958E0F9F1F0895FC0161507040019058
S11318800110D8F7809590958E0F9F1F08950F93A0
S11318901F93CF93DF93182F092FEB018B8181FDC9
S11318A003C08FEF9FEF20C082FF10C04E815F8185
S11318B02C813D81421753077CF4E881F9819F0113
S11318C02F5F3F4F39832883108306C0E885F9854D
S11318D0812F0995892B29F72E813F812F5F3F4F57
S11318E03F832E83812F902FDF91CF911F910F91F2
S11318F00895FA01AA27283051F1203181F1E894A2
S11319006F936E7F6E5F7F4F8F4F9F4FAF4FB1E0EE
S11319103ED0B4E03CD0670F781F891F9A1FA11DE9
S1131920680F791F8A1F911DA11D6A0F711D811DEA
S1131930911DA11D20D009F468943F912AE0269FAF
S113194011243019305D3193DEF6CF010895462F0E
S11319504770405D4193B3E00FD0C9F7F6CF462FEF
S11319604F70405D4A3318F0495D31FD4052419358
S113197002D0A9F7EACFB4E0A69597958795779515
S11319806795BA95C9F700976105710508959B019C
S1131990AC010A2E06945795479537952795BA9525
S11319A0C9F7620F731F841F951FA01D08952F92FE
S11319B03F924F925F926F927F928F929F92AF92DB
S11319C0BF92CF92DF92EF92FF920F931F93CF9328
S11319D0DF93CDB7DEB7CA1BDB0B0FB6F894DEBFBF
S11319E00FBECDBF09942A88398848885F846E84E5
S11319F07D848C849B84AA84B984C884DF80EE802F
S1131A00FD800C811B81AA81B981CE0FD11D0FB637
S1131A10F894DEBF0FBECDBFED010895F894FFCF5B
S1131A20000000020000000068090000000000003F
S1131A30000200000000FD0800000000B3010A0DD0
S1131A404552524F5220554E41424C4520544F204E
S1131A50454E54455220434F4E464947204D4F442E
S1131A60450A0D000A0D20434F4E464947204D4F6D
S1131A7044452041434849455645440A0D00496EB2
S1131A80746F204465627567206D6F6465005573DB
S1131A9061727420736179732068656C6C6F210ABC
S1131AA00068656C6C6F20776F726C6421210A008A
S1131AB064617461205472616E3A2025642C20782C
S1131AC03A2533642C20793A2533642C20747261CE
S1131AD06E783A2025642C2025642C2025642C2043
S1131AE025642C202564005265636569766520446D
S1131AF06174613A202533692C202533692C2053E5
S1131B00503A202535642C20454E433A202535642F
S1131B100A00257300650A00730A00660A00710A48
S1131B2000636F6E6669670A00496E746F205049DE
S1131B304420636F6E666967206D6F64650043754A
S1131B407272656E74204B702532642C204B6925AB
S1131B5032642C204B6425326400706C61790A0075
S1131B60496E746F20506C6179206D6F64650064F8
S1131B70656275670A006368616E67696E67206BEA
S1131B8070006B7020006368616E67696E67206B1C
S1131B907032006E6577206B703A2025640A00006D
S9030000FC
