S015000068656C6C6F5F617672202832292E73726563B0
S11300000C9426010C9443050C9443010C942C0588
S11300100C9443010C9443010C9443010C9443014C
S11300200C9443010C9443010C9443010C9443013C
S11300300C9443010C9443010C9443010C9443012C
S11300400C9443010C9443010C9443010C9443011C
S11300500C9443010C9443010C9443010C9443010C
S11300600C9443010C9443010C9443010C944301FC
S1130070000000000000005E0000000E000E0028DA
S11300807C287C2808547C542026100864002854BA
S113009028400000000E0000003C42000000423CEA
S11300A00000005438540010107C101000806020B0
S11300B00010101010000060600000201008040000
S11300C0003C423C0000447E40004462524C00220A
S11300D04A4A360018147E10002E4A4A32003C4A1E
S11300E04A300002621A0600344A4A34000C525262
S11300F03C00006C6C0000806C2C00000010284454
S113010000282828280000442810000004520C006D
S11301103C425A1C007C12127C007E4A4A34003C49
S1130120424224007E42423C007E4A4A42007E0A09
S11301300A02003C425274007E08087E0000427E9F
S113014042002040403E007E182442007E40404051
S1130150007E0C0C7E007E0C307E003C42423C0053
S11301607E12120C003C6242BC007E12324C00240F
S11301704A52240000027E02003E40403E001E60BF
S1130180601E007E30307E006618186600000E7017
S11301900E0062524A4600007E42420004081020CB
S11301A0000042427E00000402040040404040003F
S11301B0000204000030482878007E4848300030AF
S11301C0484800003048487E003068581000107CD1
S11301D012040050A8A898007E0808700000487A0D
S11301E040000040807A007E1028400000427E409B
S11301F00078101870007808087000304848300003
S1130200F848483000304848F80078080810005092
S113021058682800083E48400038404078000038BC
S11302204038007860607800483030480018A040BA
S11302303800486858480000083C420000007E002E
S11302400000423C080004020402000011241FBE06
S1130250CFEFD4E0DEBFCDBF11E0A0E0B1E0E4E534
S1130260F3E102C005900D92AC3DB107D9F721E04E
S1130270ACEDB1E001C01D92AA3EB207E1F70E94C5
S113028041040C94A8090C940000FC01FC5E8083DA
S113029026EA2A95F1F700C08091001490E036EA2E
S11302A03A95F1F700C020910014820F911D26EABF
S11302B02A95F1F700C02091001436EA3A95F1F737
S11302C000C0820F911D63E070E00E947A06862FC1
S11302D00895809100148AE090E020E030E0E0E0AE
S11302E0F4E14081240F311DA7EAB1E61197F1F73B
S11302F000C0000001970097A1F7ADECBCEC0E9490
S11303008E069695879596958795969587950895E3
S113031085B7806885BF80B7806280BF86E090E043
S11303200E9469018093DD0180E18A95F1F700C0A4
S113033084E090E00E9469018093DC0180E18A9569
S1130340F1F700C00895DC01ED91FC91E41BF10983
S113035034E63E9FA0013F9F500D1124552314F411
S113036041585F4F440F452F441F550BFC015183E7
S11303704083DB018D919C91FC01E21BF10944E671
S11303804E9FC0014F9F900D1124992314F481585E
S11303909F4F880F892F881F990BDB018D939C93A6
S11303A00895CF93DF9300D000D000D0CDB7DEB74F
S11303B086E090E00E94450190E02091DD01821BDF
S11303C091099A83898384E090E00E94450190E03A
S11303D09C838B832091DC014091DD01BE016B5F26
S11303E07F4FCE0101960E94A30189819A81865A8A
S11303F09F4F9A83898369817A818B819C81269618
S11304000FB6F894DEBF0FBECDBFDF91CF91089534
S113041087B3806B87BBC49A8DB180658DB908950D
S1130420813011F4C4980895C49A08958FB9779BC4
S1130430FECF8FB1089581E00E94100280EC0E94EB
S1130440160280E00E941002089581E00E941002CA
S113045085E00E9416028CE20E9416028FEF0E9431
S1130460160280E00E94160280E00E9410020895A5
S1130470EF92FF920F931F93CF93DF93C82FD62F42
S1130480042FE22E132F81E00E94100283E00E94C9
S113049016028C2F8295807F0F2EF0E3FF2EF02D15
S11304A0F80E8F2D0E94160280E00E94160280E052
S11304B00E94100281E00E94100282E00E94160253
S11304C08F2D0E94160283E00E94160280E00E9493
S11304D0100281E00E94100282E00E941602C2957E
S11304E0C07F81E38C0F0E9416028D2F869586951E
S11304F086950E94160280E00E94100281E00E940C
S1130500100282E00E94160282E38C0F0E941602FF
S11305108D2F8295880F807E0E94160280E00E94B3
S1130520100281E00E94100282E00E94160285E31C
S11305308C0F0E941602802F8F700E94160280E09A
S11305400E94100281E00E94100282E00E941602C2
S113055086E38C0F0E941602002349F0CE2DD12F82
S113056010E089910E9416021F5F1013FACF80E0F9
S11305700E94100281E00E94100282E00E94160292
S11305808F2D0E94160288E00E94160280E00E94CD
S113059010020E942502DF91CF911F910F91FF90CD
S11305A0EF900895CF93C62F0E9416028C2F0E94BD
S11305B01602CF9108958F929F92AF92BF92CF92DD
S11305C0DF92EF92FF920F931F93CF93DF93CDB7F8
S11305D0DEB72E970FB6F894DEBF0FBECDBF6C0109
S11305E05B01842E952E8E010F5F1F4F8EE0F80164
S11305F011928A95E9F781E00E94100280EB0E9433
S1130600160280E00E94160280E00E941602F82E74
S113061080E00E94100281E00E94100283E00E94A8
S113062016028F2D8295869586958370815A0E9435
S113063016027E01FFE0EF0EF11C80E00E9416021C
S1130640F80181938F01EE15FF05B9F78A81880FB0
S1130650880F880FF60180838B8182958695877039
S113066081838E81F5018083FE013796A82DB92DF3
S113067081918D93EE16FF06D9F70E9425022E96DE
S11306800FB6F894DEBF0FBECDBFDF91CF911F919F
S11306900F91FF90EF90DF90CF90BF90AF909F901D
S11306A08F90089581E00E94100283E00E94160258
S11306B08EEF0E94160280E00E9416020895CF93E6
S11306C0C82F0E941B0281E00E94100282E00E9457
S11306D0160260E88FEF0E94D20280E00E941002AE
S11306E00E945203829586958770843049F02CE1EC
S11306F031E03F932F930E94E5060F900F9008C0BE
S113070022E431E03F932F930E94E5060F900F906F
S113071088E194E00197F1F700C0000081E00E94B5
S1130720100282E00E94160260E080E20E94D2027F
S113073080E00E94100288E194E00197F1F700C084
S1130740000081E00E94100282E00E94160260E034
S113075084E20E94D20280E00E94100288E194E0C8
S11307600197F1F700C0000081E00E94100282E0CE
S11307700E94160260E081E20E94D20280E00E94A0
S1130780100288E194E00197F1F700C0000081E0D5
S11307900E94100282E00E94160260E085E20E943C
S11307A0D20280E00E94100288E194E00197F1F700
S11307B000C0000081E00E94100282E00E94160244
S11307C063E08BE20E94D20280E00E94100288E182
S11307D094E00197F1F700C0000081E00E9410024C
S11307E082E00E94160263E08AE20E94D20280E064
S11307F00E94100288E194E00197F1F700C0000024
S113080081E00E94100282E00E94160261ED89E2FA
S11308100E94D20280E00E94100288E194E00197D5
S1130820F1F700C0000081E00E94100282E00E9403
S1130830160261E488E20E94D20280E00E94100263
S113084088E194E00197F1F700C0000081E00E9484
S1130850100282E00E9416026C2F6295660F607E81
S11308608FEF0E94D20280E00E941002CF9108957F
S1130870F894C09880E090EF0197F1F7C09A7894CB
S11308800895CF93DF93CDB7DEB7A0970FB6F89452
S1130890DEBF0FBECDBF8EE091E09093E701809361
S11308A0E6018FE190E00E94610620E031E042E140
S11308B050E061E070E08CE591E00E94B1060E9496
S11308C05A050E94E0058FE691E00E9452060E94BC
S11308D0880181E087BB78948BB780668BBF85B72E
S11308E0826085BF0E9408020E941B0280E090E0A3
S11308F00E945F030F2EFEE7EF2EF1E0FF2EF02D96
S11309008E01085F1F4F0F2EF0EBCF2EF1E0DF2E8C
S1130910F02D0F2EFAEABF2EF02D0E94D101A62E43
S1130920872E982E792E2FEF8FED91E02150804065
S11309309040E1F700C00000B986AA869B869E011C
S1130940275F3F4F48E065E080E00E9438022FEFC8
S11309508FED91E0215080409040E1F700C000000D
S113096061E085E00E948D0588891F928F938F85B1
S11309701F928F938E851F928F938D851F928F93D5
S11309808C851F928F937F929F928F92AF928985CD
S11309901F928F93FF92EF920E94E5060FB6F89490
S11309A0DEBF0FBECDBF8091E0019091E101892BA4
S11309B009F444C01092E1011092E00164E085E082
S11309C00E948D05AE014F5F5F4F60E070E0CE0185
S11309D041960E94DB02FE013196DE01539681911D
S11309E088231CF490E09A9501C090E08D939D9328
S11309F0E017F107A1F78E8190E0982F88272F81C7
S1130A00820F911D9F938F938C8190E0982F88275C
S1130A102D81820F911D9F938F938E898F938D8942
S1130A208F938C898F938B898F93DF92CF920E94BF
S1130A30E5060FB6F894DEBF0FBECDBF8091DE0190
S1130A409091DF01892B09F468CF1092DF01109295
S1130A50DE010E9438045DCF1F920F920FB60F92F1
S1130A6011248F939F9381E090E09093E101809310
S1130A70E0018AB78F7D8ABF9F918F910F900FBE3F
S1130A800F901F9018951F920F920FB60F9211247A
S1130A908F939F9381E090E09093DF018093DE0138
S1130AA08AB78F7B8ABF9F918F910F900FBE0F9053
S1130AB01F90189585B7806885BF80B7806280BF16
S1130AC0EFE0F0E18EEA808381EA80838AED80831F
S1130AD082E1808388EC808388EA80838FE380834B
S1130AE085ED808380E8808381E8808380E580834E
S1130AF089ED808381E2808380E2808310828BEDA4
S1130B00808380E380838DEA8083108284EA8083FB
S1130B1086EA80838FEA808308958093E30160935B
S1130B20E201EFE0F0E191E2908380838FE780833C
S1130B3082E28083608386E0808308958091E2016D
S1130B408F5F8093E2018091E201873010F0109270
S1130B50E2016091E20180E00E948D050895CF9347
S1130B608A3019F40E949E0529C0C0EEC80F8091F6
S1130B70E3018B5F8093E3018091E3018D3770F093
S1130B800E949E050BC0FC01E20FF31FE491EC935D
S1130B902F5F3F4F25303105B1F710C08C2F90E007
S1130BA09C01220F331F220F331F820F931F20E05B
S1130BB030E080599F4FAFE0B2E1E5CFCF91089587
S1130BC01092E3011092E201EFE0F0E18EEA8083FB
S1130BD080E28083108281E2808310828FE78083A9
S1130BE082E28083108287E0808380E4808380E0D7
S1130BF094E0EFE0F2E1108201970097E1F7EFE073
S1130C00F0E181E2808310828FE7808382E2808337
S1130C10108286E080838CE780838FEA808360E0A3
S1130C2080E00E948D0508958D3011F08A3019F40A
S1130C300E949E0502C00E94AF0580E090E00895E6
S1130C40CF938A3019F40E949E052AC0C0EEC80FC3
S1130C508091E3018B5F8093E3018091E3018D3701
S1130C6078F00E949E050CC0FC01E20FF31FE49192
S1130C70E095EC932F5F3F4F25303105A9F710C065
S1130C808C2F90E09C01220F331F220F331F820F01
S1130C90931F20E030E080599F4FAFE0B2E1E4CFF2
S1130CA0CF910895CF93DF93EC018881882331F0AD
S1130CB021960E94200689918111FBCFDF91CF916B
S1130CC008959CBF80B988E181B986E88CBF0895F6
S1130CD0159BFECF83B90895CF93C82F8A3019F49A
S1130CE08DE00E9468068C2F0E94680680E090E0E8
S1130CF0CF91089597FB072E16F4009407D077FD43
S1130D0009D00E949D0607FC05D03EF4909581957C
S1130D109F4F0895709561957F4F0895A29FB001EC
S1130D20B39FC001A39F700D811D1124911DB29F1B
S1130D30700D811D1124911D0895AA1BBB1B51E147
S1130D4007C0AA1FBB1FA617B70710F0A61BB70B37
S1130D50881F991F5A95A9F780959095BC01CD01DC
S1130D600895A0E0B0E0E7EBF6E00C9477096B019E
S1130D704A017901D90113962C9121FF1DC0C0E0CD
S1130D80D0E0C815D905D9F08C015C01AC0CBD1CB0
S1130D90C8010A151B0571F00F5F1F4FD701189684
S1130DA0ED91FC911997B701DC018C910995892B80
S1130DB079F305C02196E5CF80E090E001C0CE0133
S1130DC0CDB7DEB7ECE00C949309A0E0B0E0EBEE15
S1130DD0F6E00C948109FE01359661917191AF01A1
S1130DE08091E6019091E7010E94F906E2E00C94FB
S1130DF09D09ACE0B0E0EFEFF6E00C9471097C01E2
S1130E006B018A01FC0117821682838181FFBDC1B7
S1130E10CE0101964C01F7019381F60193FD859172
S1130E2093FF81916F01882309F4ABC1853239F4B2
S1130E3093FD859193FF81916F01853229F4B70168
S1130E4090E00E94E108E7CF512C312C20E02032C1
S1130E50A0F48B3269F030F4803259F0833269F4B3
S1130E6020612CC08D3239F0803339F4216026C0E2
S1130E702260246023C0286021C027FD27C030EDF4
S1130E80380F3A3078F426FF06C0FAE05F9E300D42
S1130E901124532E13C08AE0389E300D1124332EB2
S1130EA020620CC08E3221F426FD6BC1206406C082
S1130EB08C3611F4206802C0883641F4F60193FDA3
S1130EC0859193FF81916F018111C1CF982F9F7DEF
S1130ED09554933028F40C5F1F4FFFE3F9830DC042
S1130EE0833631F0833771F0833509F05BC022C05B
S1130EF0F801808189830E5F1F4F44244394512C51
S1130F00540115C03801F2E06F0E711CF801A08085
S1130F10B18026FF03C0652D70E002C06FEF7FEF44
S1130F20C5012C870E94D6082C0183012C852F77BC
S1130F30222E17C03801F2E06F0E711CF801A08058
S1130F40B18026FF03C0652D70E002C06FEF7FEF14
S1130F50C5012C870E94CB082C012C852068222EE9
S1130F60830123FC1BC0832D90E048165906B0F47E
S1130F70B70180E290E00E94E1083A94F4CFF501D1
S1130F8027FC859127FE81915F01B70190E00E94C3
S1130F90E10831103A94F1E04F1A51084114510418
S1130FA071F7E5C0843611F0893639F5F80127FF69
S1130FB007C060817181828193810C5F1F4F08C0DB
S1130FC060817181882777FD8095982F0E5F1F4F70
S1130FD02F76B22E97FF09C09095809570956195F4
S1130FE07F4F8F4F9F4F2068B22E2AE030E0A4013C
S1130FF00E941309A82EA81844C0853729F42F7E0F
S1131000B22E2AE030E025C0F22FF97FBF2E8F36B2
S1131010C1F018F4883579F0B4C0803719F08837F6
S113102021F0AFC02F2F2061B22EB4FE0DC08B2D46
S11310308460B82E09C024FF0AC09F2F9660B92E81
S113104006C028E030E005C020E130E002C020E125
S113105032E0F801B7FE07C060817181828193811B
S11310600C5F1F4F06C06081718180E090E00E5FCD
S11310701F4FA4010E941309A82EA818FB2DFF7767
S1131080BF2EB6FE0BC02B2D2E7FA51450F4B4FE3C
S11310900AC0B2FC08C02B2D2E7E05C07A2C2B2D45
S11310A003C07A2C01C0752C24FF0DC0FE01EA0D8B
S11310B0F11D8081803311F4297E09C022FF06C00E
S11310C07394739404C0822F867809F0739423FD7B
S11310D013C020FF06C05A2C731418F4530C57186D
S11310E0732C731468F4B70180E290E02C870E949B
S11310F0E10873942C85F5CF731410F4371801C0EC
S1131100312C24FF12C0B70180E390E02C870E94A9
S1131110E1082C8522FF17C021FF03C088E590E079
S113112002C088E790E0B7010CC0822F867859F09E
S113113021FD02C080E201C08BE227FD8DE2B701F0
S113114090E00E94E108A51438F4B70180E390E030
S11311500E94E1085A94F7CFAA94F401EA0DF11D14
S11311608081B70190E00E94E108A110F5CF3320FF
S113117009F451CEB70180E290E00E94E1083A946C
S1131180F6CFF7018681978102C08FEF9FEF2C96EF
S1131190E2E10C948D09FC0105906150704001104E
S11311A0D8F7809590958E0F9F1F0895FC0161508C
S11311B0704001900110D8F7809590958E0F9F1F75
S11311C008950F931F93CF93DF93182F092FEB01EB
S11311D08B8181FD03C08FEF9FEF20C082FF10C081
S11311E04E815F812C813D81421753077CF4E88155
S11311F0F9819F012F5F3F4F39832883108306C0F5
S1131200E885F985812F0995892B29F72E813F815E
S11312102F5F3F4F3F832E83812F902FDF91CF91FC
S11312201F910F910895FA01AA27283051F1203116
S113123081F1E8946F936E7F6E5F7F4F8F4F9F4F66
S1131240AF4FB1E03ED0B4E03CD0670F781F891FA8
S11312509A1FA11D680F791F8A1F911DA11D6A0F76
S1131260711D811D911DA11D20D009F468943F9129
S11312702AE0269F11243019305D3193DEF6CF0128
S11312800895462F4770405D4193B3E00FD0C9F7EE
S1131290F6CF462F4F70405D4A3318F0495D31FD5B
S11312A04052419302D0A9F7EACFB4E0A6959795AE
S11312B0879577956795BA95C9F700976105710584
S11312C008959B01AC010A2E0694579547953795CE
S11312D02795BA95C9F7620F731F841F951FA01D28
S11312E008952F923F924F925F926F927F928F92C6
S11312F09F92AF92BF92CF92DF92EF92FF920F93A1
S11313001F93CF93DF93CDB7DEB7CA1BDB0B0FB6AA
S1131310F894DEBF0FBECDBF09942A883988488867
S11313205F846E847D848C849B84AA84B984C884FD
S1131330DF80EE80FD800C811B81AA81B981CE0FF4
S1131340D11D0FB6F894DEBF0FBECDBFED010895D9
S1071350F894FFCF3B
S113135400000002000000006C0600000000000011
S11313640002000000001406000000000A0D4552AB
S1131374524F5220554E41424C4520544F20454E25
S113138454455220434F4E464947204D4F44450A45
S11313940D000A0D20434F4E464947204D4F444506
S11313A42041434849455645440A0D00557361722A
S11313B47420736179732068656C6C6F210A00680A
S11313C4656C6C6F20776F726C6421210A00646110
S11313D47461205472616E3A2025642C20783A207A
S11313E42535642C20793A202535642C2025642C59
S11313F42025642C2025642C2025642C20256400BD
S11314045265636569766520446174613A202535C3
S1131414692C202535692C207365743A202535649C
S10F14242C20656E3A202535640A000077
S9030000FC
