S011000068656C6C6F5F6176722E7372656357
S11300000C9408020C9462080C9425020C944B087E
S11300100C9425020C9425020C9425020C942502C0
S11300200C9425020C9425020C9425020C942502B0
S11300300C9425020C9425020C9425020C942502A0
S11300400C9425020C9425020C9425020C94250290
S11300500C9479080C9425020C9425020C94250226
S11300600C9425020C9425020C9425020C94250270
S113007007011A021A0285011A02D204CB04707213
S1130080657373207120666F72204D7573696320E8
S113009044454D4F0007011A021A029F011A02D269
S11300A004C4047072657373207120666F722047F4
S11300B07261706869632044454D4F0007011A025C
S11300C01A02BF011A02D204DD0470726573732030
S11300D07120666F7220646562756720696E666F51
S11300E00007031A02F900E3011A02D204000054C3
S11300F0756E696E67204B64000702E1001101E32D
S1130100011A02D204000054756E696E67204B69AF
S1130110000701F9001A02E3011A02D20400005494
S1130120756E696E67204B700007031A0241010067
S1130130021A02D20400004175746F20506C617978
S11301400007022901640100021A02D204000050CF
S11301506C6179207769746820536D61727450689A
S11301606F6E6500070141011A0200021A02D204EF
S11301700000506C61792077697468204A6F797344
S11301807469636B0014061A029F011A027000D28C
S11301900400004D757369632044656D6F2100147C
S11301A0058501BF011A029500D20400004475615F
S11301B06C204275666665722044656D6F21000F80
S11301C0049F01E3011A02BC00D20400004F6E2018
S11301D074686520466C7920446562756767696E4A
S11301E06721000A03BF0100021A021101D20400B0
S11301F0004F6E6C696E652054756E696E672100E0
S11302000502E3011A021A026401D20400004C65DB
S113021074277320506C61792100000000000000F5
S11302200000000000000000000000000000005E6C
S11302300000000E000E00287C287C2808547C5402
S1130240202610086400285428400000000E0000F6
S1130250003C42000000423C0000005438540010AE
S1130260107C10100080602000101010100000603E
S11302706000002010080400003C423C0000447E62
S113028040004462524C00224A4A360018147E1040
S1130290002E4A4A32003C4A4A300002621A0600E2
S11302A0344A4A34000C52523C00006C6C0000800A
S11302B06C2C000000102844002828282800004442
S11302C02810000004520C003C425A1C007C1212FC
S11302D07C007E4A4A34003C424224007E42423C36
S11302E0007E4A4A42007E0A0A02003C42527400DE
S11302F07E08087E0000427E42002040403E007E90
S1130300182442007E404040007E0C0C7E007E0C8F
S1130310307E003C42423C007E12120C003C6242A1
S1130320BC007E12324C00244A52240000027E0299
S1130330003E40403E001E60601E007E30307E0065
S11303406618186600000E700E0062524A460000DD
S11303507E42420004081020000042427E00000455
S113036002040040404040000002040000304828DD
S113037078007E4848300030484800003048487EC5
S1130380003068581000107C12040050A8A898008F
S11303907E0808700000487A40000040807A007EA1
S11303A01028400000427E40007810187000780841
S11303B00870003048483000F84848300030484859
S11303C0F80078080810005058682800083E484093
S11303D00038404078000038403800786060780089
S11303E0483030480018A040380048685848000099
S11303F0083C420000007E000000423C0800040269
S11304000402006364696E6F70737578585B000052
S113041011241FBECFEFD4E0DEBFCDBF13E0A0E0B8
S1130420B1E0E8E7F6E202C005900D92A435B10709
S1130430D9F723E0A4E5B3E001C01D92AB38B207BD
S1130440E1F70E9400050C943A130C940000FC019F
S1130450FC5E808326EA2A95F1F700C0809100149F
S113046090E036EA3A95F1F700C020910014820F2B
S1130470911D26EA2A95F1F700C02091001436EA6E
S11304803A95F1F700C0820F911D63E070E00E947D
S11304908D0C862F0895809100148AE090E020E06E
S11304A030E0E0E0F4E14081240F311DA7EAB1E639
S11304B01197F1F700C0000001970097A1F7ADEC88
S11304C0BCEC0E94A10C9695879596958795969578
S11304D08795089585B7806885BF80B7806280BF9F
S11304E086E090E00E944B028093550380E18A9558
S11304F0F1F700C084E090E00E944B028093540323
S113050080E18A95F1F700C00895CF9386E090E0EA
S11305100E942702C82F84E090E00E9427026C2FDB
S1130520782F80E0CF91089587B3806B87BBC49AFE
S11305308DB180658DB90895813011F4C498089502
S1130540C49A08958FB9779BFECF8FB1089581E047
S11305500E949C0280EC0E94A20280E00E949C0205
S1130560089581E00E949C0285E00E94A2028CE230
S11305700E94A2028FEF0E94A20280E00E94A202C7
S113058080E00E949C020895EF92FF920F931F93C4
S1130590CF93DF93C82FD62F042FE22E132F81E0A1
S11305A00E949C0283E00E94A2028C2F8295807F8D
S11305B00F2EF0E3FF2EF02DF80E8F2D0E94A202D5
S11305C080E00E94A20280E00E949C0281E00E94DE
S11305D09C0282E00E94A2028F2D0E94A20283E06C
S11305E00E94A20280E00E949C0281E00E949C0280
S11305F082E00E94A202C295C07F81E38C0F0E9418
S1130600A2028D2F8695869586950E94A20280E08F
S11306100E949C0281E00E949C0282E00E94A2024D
S113062082E38C0F0E94A2028D2F8295880F807E18
S11306300E94A20280E00E949C0281E00E949C022F
S113064082E00E94A20285E38C0F0E94A202802F06
S11306508F700E94A20280E00E949C0281E00E94AE
S11306609C0282E00E94A20286E38C0F0E94A202F6
S1130670002349F0CE2DD12F10E089910E94A202CF
S11306801F5F1013FACF80E00E949C0281E00E9459
S11306909C0282E00E94A2028F2D0E94A20288E0A6
S11306A00E94A20280E00E949C020E94B102DF919B
S11306B0CF911F910F91FF90EF900895CF93C62F84
S11306C00E94A2028C2F0E94A202CF9108958F92C1
S11306D09F92AF92BF92CF92DF92EF92FF920F93CD
S11306E01F93CF93DF93CDB7DEB72E970FB6F89451
S11306F0DEBF0FBECDBF6C015B01842E952E8E0133
S11307000F5F1F4F8EE0F80111928A95E9F781E09F
S11307100E949C0280EB0E94A20280E00E94A2023E
S113072080E00E94A202F82E80E00E949C0281E0F8
S11307300E949C0283E00E94A2028F2D82958695DE
S113074086958370815A0E94A2027E01FFE0EF0E1B
S1130750F11C80E00E94A202F80181938F01EE1542
S1130760FF05B9F78A81880F880F880FF601808307
S11307708B8182958695877081838E81F501808334
S1130780FE013796A82DB92D81918D93EE16FF06A3
S1130790D9F70E94B1022E960FB6F894DEBF0FBEB1
S11307A0CDBFDF91CF911F910F91FF90EF90DF901C
S11307B0CF90BF90AF909F908F90089581E00E945A
S11307C09C0283E00E94A2028EEF0E94A20280E0BB
S11307D00E94A2020895CF93C82F0E94A70281E02D
S11307E00E949C0282E00E94A20260E88FEF0E94B5
S11307F05E0380E00E949C020E94DE03829586953F
S11308008770843049F02EE131E03F932F930E94AA
S11308100F0D0F900F9008C024E431E03F932F9305
S11308200E940F0D0F900F9088E194E00197F1F76B
S113083000C0000081E00E949C0282E00E94A202AB
S113084060E080E20E945E0380E00E949C0288E1F6
S113085094E00197F1F700C0000081E00E949C023F
S113086082E00E94A20260E084E20E945E0380E0D3
S11308700E949C0288E194E00197F1F700C0000017
S113088081E00E949C0282E00E94A20260E081E278
S11308900E945E0380E00E949C0288E194E001973C
S11308A0F1F700C0000081E00E949C0282E00E94F7
S11308B0A20260E085E20E945E0380E00E949C0246
S11308C088E194E00197F1F700C0000081E00E9404
S11308D09C0282E00E94A20263E08BE20E945E031B
S11308E080E00E949C0288E194E00197F1F700C047
S11308F0000081E00E949C0282E00E94A20263E068
S11309008AE20E945E0380E00E949C0288E194E0F7
S11309100197F1F700C0000081E00E949C0282E090
S11309200E94A20261ED89E20E945E0380E00E94BF
S11309309C0288E194E00197F1F700C0000081E097
S11309400E949C0282E00E94A20261E488E20E946A
S11309505E0380E00E949C0288E194E00197F1F735
S113096000C0000081E00E949C0282E00E94A2027A
S11309706C2F6295660F607E8FEF0E945E0380E0AD
S11309800E949C02CF91089581E090E090936103CE
S113099080936003089581E090E090935F038093D7
S11309A05E030895CF93DF93EA010E94C109CE014B
S11309B00E94A60ADF91CF91089560E086E00E942C
S11309C0C1098EE591E00E94230D81E090E09093AF
S11309D06503809364030895CF93DF93EA010E9433
S11309E0C109CE010E94140ADF91CF910895F894B1
S11309F0C09880E090EF0197F1F7C09A7894089539
S1130A00CF93DF93CDB7DEB7A0970FB6F894DEBFD0
S1130A100FBECDBF8EE091E090938803809387034F
S1130A208FE190E00E94720C20E031E042E150E05E
S1130A3061E070E082E891E00E94DB0C0E948E0984
S1130A400E94250A85E991E00E94970A0E946A02A1
S1130A5081E087BB88BB78948BB780668BBF85B7F2
S1130A60826085BF0E9494020E94A70280E090E009
S1130A700E94EB038CEE94E00E94830985E29AE0E5
S1130A800E94C4080E94250A80E092E00E94430963
S1130A900E94DB0880E092E00E94430988E08C8792
S1130AA085E08D878E870E94150C5E0123E1A20EDE
S1130AB0B11C8E01085F1F4F8A2C9B2C0F2EF4EA69
S1130AC0CF2EF1E0DF2EF02D0F2EFBEDEF2EF1E017
S1130AD0FF2EF02D80916603833009F43FC028F483
S1130AE0813051F0823009F17DC0843009F44FC067
S1130AF0853009F465C076C01092650310926403D2
S1130B0010926303109262031092610310926003C7
S1130B1010925F0310925E030E94BF080496FC01CA
S1130B20859194910E9443095DC0109265031092CF
S1130B306403109263031092620310926103109293
S1130B40600310925F0310925E030E94BF08029636
S1130B50FC01859194910E94430944C0109265035D
S1130B601092640310926303109262031092610363
S1130B701092600310925F0310925E030E94BF08FC
S1130B800696FC01859194910E9443092BC0109212
S1130B90650310926403109263031092620310922F
S1130BA061031092600310925F0310925E030E942F
S1130BB0BF080896FC01859194910E94430912C0D4
S1130BC010926503109264031092630310926203FF
S1130BD0109261031092600310925F0310925E03FF
S1130BE00E94C908109266030E948502762E672E21
S1130BF0582E8FEF9FED21E0815090402040E1F787
S1130C0000C0000019867A86862D80958B879E0108
S1130C10275F3F4F48E065E080E00E94C402809176
S1130C205C0390915D03892B69F010925D0310922F
S1130C305C03AE014F5F5F4F60E070E0CE01419610
S1130C400E9467032091640330916503232B09F408
S1130C5063C061E085E00E94C1098A8588231CF491
S1130C6090E09A9501C090E09C8B8B8B88891F92B1
S1130C708F938F851F928F938E851F928F938D856F
S1130C801F928F938C851F928F935F926F921F9206
S1130C907F9289851F928F93DF92CF920E940F0DCE
S1130CA064E085E00E94C109FE013196A82DB92DAA
S1130CB00FB6F894DEBF0FBECDBF819188231CF41C
S1130CC090E09A9501C090E08D939D93E017F10711
S1130CD0A1F78E8190E0982F88272F81820F911D94
S1130CE09F938F938C8190E0982F88272D81820F7A
S1130CF0911D9F938F938E898F938D898F938C8968
S1130D008F938B898F93FF92EF920E940F0D0FB6F2
S1130D10F894DEBF0FBECDBF80915A0390915B0360
S1130D20892B31F010925B0310925A030E94F7044E
S1130D308091580390915903892B09F4CBCE60E03C
S1130D4080E00E94C10981E793E09F938F9386E03E
S1130D5092E09F938F930E940F0D1092590310926B
S1130D60580361E773E089E092E00E94C40C0F909D
S1130D700F900F900F90892B21F481E080936603EC
S1130D8097C061E773E082EA92E00E94C40C892B69
S1130D9021F482E0809366038BC061E773E08CE00A
S1130DA092E00E94C40C892B21F483E080936603B3
S1130DB07FC061E773E08FE092E00E94C40C892B4E
S1130DC021F484E08093660373C061E773E082E1F9
S1130DD092E00E94C40C892B21F485E08093660381
S1130DE067C061E773E085E192E00E94C40C892B3F
S1130DF0D9F5109265031092640310926303109264
S1130E006203109261031092600310925F031092C8
S1130E105E0381E191E00E94430960E086E00E9464
S1130E20C1098DE192E00E94230D65E082E00E94F9
S1130E30C1098E851F928F938D851F928F938C8508
S1130E401F928F9382E392E09F938F930E940F0DE2
S1130E5081E090E090936303809362030FB6F8946B
S1130E60DEBF0FBECDBF24C061E773E08EE492E025
S1130E700E94C40C892BE1F4109265031092640360
S1130E801092630310926203109261031092600344
S1130E9010925F0310925E0384E691E00E9443097E
S1130EA060E086E00E94C10984E592E00E94230D7F
S1130EB061E773E083E692E00E94C40C892BB1F4ED
S1130EC010926503109264031092630310926203FC
S1130ED0109261031092600310925F0310925E03FC
S1130EE08CEB90E00E9443090E94C9088091620340
S1130EF090916303892B09F48DC043E050E061E7CE
S1130F0073E08AE692E00E94CD0C892BF1F4BF9243
S1130F10AF928EE692E09F938F9381E793E09F9345
S1130F208F930E94500D8B899C898C8799279F935E
S1130F308F9385E792E09F938F930E940F0D0FB6D6
S1130F40F894DEBF0FBECDBF4DC043E050E061E773
S1130F5073E082E892E00E94CD0C892BE9F4BF9201
S1130F60AF9286E892E09F938F9381E793E09F93FB
S1130F708F930E94500D8B898D878C851F928F9340
S1130F808DE892E09F938F930E940F0D0FB6F89413
S1130F90DEBF0FBECDBF26C043E050E061E773E083
S1130FA08AE992E00E94CD0C892BE1F4BF92AF92C2
S1130FB08EE992E09F938F9381E793E09F938F93C1
S1130FC00E94500D8B898E878C851F928F9385EAA2
S1130FD092E09F938F930E940F0D0FB6F894DEBF9B
S1130FE00FBECDBF65E082E00E94C1098E851F92CD
S1130FF08F938D851F928F938C851F928F9382E39D
S113100092E09F938F930E940F0D0FB6F894DEBF6A
S11310100FBECDBF80915E0390915F03892B41F099
S113102010925F0310925E03F8940E94630C78940C
S11310308091600390916103892B09F44BCD109248
S1131040610310926003F8940E944E0B64E087E100
S11310500E94430B85E991E00E94320BFF24F39434
S11310604F2D60E280E40E94560B4F2D440F2F2D2C
S11310706DE08CE00E94CD0B9FEF2FE781E0915053
S113108020408040E1F700C000C0F39492E2F912DE
S1131090E7CF789413CD1F920F920FB60F921124BD
S11310A08F939F9381E090E090935D0380935C0322
S11310B08AB78F7D8ABF9F918F910F900FBE0F903B
S11310C01F9018951F920F920FB60F9211248F93B1
S11310D09F9381E090E090935B0380935A038AB7D7
S11310E08F7B8ABF9F918F910F900FBE0F901F909F
S11310F018951F920F920FB60F9211242F938F936E
S11311009F93EF93FF938091580390915903892BF8
S113111061F583B1E0915603F0915703EF58FC4F0A
S1131120808317988091560390915703FC01EF58E0
S1131130FC4F20812D3029F02A3019F0833191059C
S11311407CF0FC01EF58FC4F11821092570310926F
S1131150560381E090E0909359038093580305C0AF
S113116001969093570380935603FF91EF919F91BB
S11311708F912F910F900FBE0F901F901895809113
S11311801C0190911D01089590936A038093690353
S11311900895E0911C01F0911D0182E0EA31F80705
S11311A049F0309739F03C9685919491009711F06D
S11311B0FC0109950895CF93DF93C0911C01D09150
S11311C01D0122E0CA31D20709F45AC0209709F45C
S11311D057C0CE010496FC01259134912A51324026
S11311E0A9F0FC0125913491232B81F0FC01859118
S11311F09491EC010496FC01259134912A513240DA
S113120029F0FC0125913491232B81F720916B0364
S113121030916C032115310509F432C0FE01319679
S11312206491FE018491AE01425F5F4FF90109951B
S11312302296FE01859194918A51924009F1FE0112
S113124085919491892BE1F0FE01C591D491FE0121
S113125031966491FE018491AE01425F5F4FE0914B
S11312606B03F0916C0309952296FE01859194918C
S11312708A51924029F0FE0185919491892B21F79E
S1131280DF91CF910895CF93DF9322E08A319207C3
S113129009F436C0009709F433C0E0911C01F091C1
S11312A01D01F0936803E093670390931D018093FD
S11312B01C013696259134910696FC0185919491F2
S11312C02817390729F0E0916903F0916A03099519
S11312D0E0911C01F0911D013A96C591D4910E94B0
S11312E0DB08209769F040911C0150911D01FA011F
S11312F031966491FA018491425F5F4FFE01099532
S1131300DF91CF91089590936C0380936B03809148
S11313101C0190911D010E944309089585B78068BE
S113132085BF80B7806280BFEFE0F0E18EEA808302
S113133081EA80838AED808382E1808388EC8083E4
S113134088EA80838FE3808385ED808380E88083CF
S113135081E8808380E5808389ED808381E28083D6
S113136080E2808310828BED808380E380838DEA2A
S11313708083108284EA808386EA80838FEA808374
S113138008958093700360936F03EFE0F0E191E2BE
S1131390908380838FE7808382E28083608386E00A
S11313A08083089580916F038F5F80936F03809192
S11313B06F03873010F010926F0360916F0380E029
S11313C00E94C1090895CF938A3019F40E94D2096A
S11313D029C0C0EEC80F809170038B5F80937003A7
S11313E0809170038D3770F00E94D2090BC0FC010C
S11313F0E20FF31FE491EC932F5F3F4F253031054B
S1131400B1F710C08C2F90E09C01220F331F220FE4
S1131410331F820F931F20E030E0885D9D4FAFE0C3
S1131420B2E1E5CFCF910895CF93DF93EC01FC01B6
S11314308491882339F00E94E3092196FE01849166
S11314408111F9CFDF91CF9108951092700310921A
S11314506F03EFE0F0E18EEA808380E28083108204
S113146081E2808310828FE7808382E2808310820E
S113147087E0808380E4808380E094E0EFE0F2E121
S1131480108201970097E1F7EFE0F0E181E28083B9
S113149010828FE7808382E28083108286E08083DB
S11314A08CE780838FEA808360E080E00E94C1093A
S11314B008958D3011F08A3019F40E94D20902C0C7
S11314C00E94E30980E090E00895CF938A3019F4F4
S11314D00E94D2092AC0C0EEC80F809170038B5FAE
S11314E080937003809170038D3778F00E94D20945
S11314F00CC0FC01E20FF31FE491E095EC932F5F25
S11315003F4F25303105A9F710C08C2F90E09C0186
S1131510220F331F220F331F820F931F20E030E06E
S1131520885D9D4FAFE0B2E1E4CFCF910895CF93B2
S1131530DF93EC018881882331F021960E94650AAB
S113154089918111FBCFDF91CF910895CF93DF93E0
S1131550EC01FC018491882339F00E94650A2196EC
S1131560FE0184918111F9CFDF91CF910895E62F87
S1131570E695E695E69540E8E49FF0011124E80F2E
S1131580F11DF75E2081677081E090E0AC0102C03C
S1131590440F551F6A95E2F7BA01622B60830895E0
S11315A060E080E00E94C109E0E0F9E1AFE0B2E16F
S11315B081918C93E0388CE1F807D1F708958A3053
S11315C059F480916D0390916E0380589F4F9093CE
S11315D06E0380936D030895805220916D033091C2
S11315E06E032F7733272D37310578F120916D0362
S11315F030916E0320583F4F30936E0320936D0358
S113160020916D0330916E0320383340F0F0109236
S11316106E0310926D0319C0A0916D03B0916E0317
S1131620B75EFA01E20FF31FE491EC9380916D032E
S113163090916E03019690936E0380936D032F5FD8
S11316403F4F2530310541F7089590E0AC01440F38
S1131650551F440F551F480F591F20E030E0485DC7
S11316605D4FDACFCF93DF93EC018881882331F08B
S113167021960E94DF0A89918111FBCF0E94D00A32
S1131680DF91CF91089590E8699FB0011124680F0C
S1131690711D70936E0360936D030895E0E0F9E1AA
S11316A01192E1158DE1F807D9F70895AF92BF9231
S11316B0CF92DF92EF92FF920F931F93CF93DF931A
S11316C0082FF62EC42F11E0141BA42EA194AA0CEB
S11316D0D42F642F6F0D0E94B70A6F2D6C1B802FBF
S11316E00E94B70A6F2D8C2F800F0E94B70A6F2DAE
S11316F0802F8C1B0E94B70A1C160CF041C00F2EC1
S1131700F3E0EF2EF02DC0E0112324F0D150A39488
S1131710A3941A0DCF5F1E0DB02EBC0ECD2ECF0C90
S11317206C2D8B2D0E94B70AD02EDC1A6C2D8D2DBA
S11317300E94B70ACF2CCD1A6C2D8B2D0E94B70AAC
S11317406C2D8D2D0E94B70ADC2EDF0C6D2DBD2E65
S1131750B00E8B2D0E94B70A6D2DD02EDD1A8D2D63
S11317600E94B70ACF2CCC1A6C2D8B2D0E94B70A7D
S11317706C2D8D2D0E94B70AE394E394CD1724F2C7
S11317800E94D00ADF91CF911F910F91FF90EF90AB
S1131790DF90CF90BF90AF900895BF92CF92DF9229
S11317A0EF92FF920F931F93CF93DF93D82EC62F00
S11317B0C42EB22E082F10E07801E40EF11C0E1591
S11317C01F0584F4DFEFD20FD60F6C2F802F0E94F9
S11317D0B70A6D2F802F0E94B70A0F5F1F4F0E1597
S11317E01F059CF3D0E08E010B0D111DC017D1070E
S11317F084F4FF24FA94FC0CFD0C6C2F8D2D0E94B4
S1131800B70A6C2F8F2D0E94B70A2196C017D107F3
S1131810A4F30E94D00ADF91CF911F910F91FF9002
S1131820EF90DF90CF90BF900895329A8FB5806289
S11318308FBD8EB582618EBD0895EF92FF920F9396
S11318401F93CF93DF93EC0188EE93E0689FD00160
S1131850699FB00D112404E610E060E270E0E12C11
S1131860F12C23C0C90199230CF401969595879511
S11318702A813B8124968130910519F419BC18BC46
S113188004C019BD08BD95BD84BDAB01421B530BFB
S11318901416150654F42E2D3F2DFD013197F1F742
S11318A02F5F3F4F24173507C1F728813981211550
S11318B03105C1F619BC18BCDF91CF911F910F916E
S11318C0FF90EF90089564E182EB92E00E941D0C7A
S11318D02FE38DE093E0215080409040E1F700C079
S11318E0000008959CBF80B981B1886981B98CB723
S11318F086688CBF0895159BFECF83B90895CF9356
S1131900C82F8A3019F48DE00E947B0C8C2F0E9422
S11319107B0C80E090E0CF91089597FB072E16F49E
S1131920009407D077FD09D00E94B00C07FC05D0C5
S11319303EF4909581959F4F0895709561957F4FE2
S11319400895A29FB001B39FC001A39F700D811D94
S11319501124911DB29F700D811D1124911D0895B4
S1131960AA1BBB1B51E107C0AA1FBB1FA617B707C1
S113197010F0A61BB70B881F991F5A95A9F78095DD
S11319809095BC01CD010895FB01DC018D9101907E
S113199080190110D9F3990B0895FB01DC01415022
S11319A0504030F08D910190801919F40020B9F75E
S11319B0881B990B0895A0E0B0E0E1EEFCE00C94E4
S11319C009136B014A017901D90113962C9121FF66
S11319D01DC0C0E0D0E0C815D905D9F08C015C0168
S11319E0AC0CBD1CC8010A151B0571F00F5F1F4F1D
S11319F0D7011896ED91FC911997B701DC018C91F0
S1131A000995892B79F305C02196E5CF80E090E014
S1131A1001C0CE01CDB7DEB7ECE00C942513A0E0F5
S1131A20B0E0E5E1FDE00C941313FE0135966191FD
S1131A307191AF0180918703909188030E94690D91
S1131A40E2E00C942F130F931F93CF93DF93E09155
S1131A508703F0918803238121FF1BC0EC0100E080
S1131A6010E089916091870370918803DB011896D7
S1131A70ED91FC911997882331F00995892B89F30D
S1131A800FEF1FEFEECF8AE00995892B11F4C801FF
S1131A9002C08FEF9FEFDF91CF911F910F910895B7
S1131AA0AEE0B0E0E6E5FDE00C94131385E08C8332
S1131AB08B899C899A838983AE01495E5F4F6D89C6
S1131AC07E89CE0101960E94B9102E96E2E00C9414
S1131AD02F13ACE0B0E0EFE6FDE00C9403137C01BF
S1131AE06B018A01FC0117821682838181FFBDC1CB
S1131AF0CE0101964C01F7019381F60193FD859186
S1131B0093FF81916F01882309F4ABC1853239F4C5
S1131B1093FD859193FF81916F01853229F4B7017B
S1131B2090E00E945712E7CF512C312C20E0203254
S1131B30A0F48B3269F030F4803259F0833269F4C6
S1131B4020612CC08D3239F0803339F4216026C0F5
S1131B502260246023C0286021C027FD27C030ED07
S1131B60380F3A3078F426FF06C0FAE05F9E300D55
S1131B701124532E13C08AE0389E300D1124332EC5
S1131B8020620CC08E3221F426FD6BC1206406C095
S1131B908C3611F4206802C0883641F4F60193FDB6
S1131BA0859193FF81916F018111C1CF982F9F7D02
S1131BB09554933028F40C5F1F4FFFE3F9830DC055
S1131BC0833631F0833771F0833509F05BC022C06E
S1131BD0F801808189830E5F1F4F44244394512C64
S1131BE0540115C03801F2E06F0E711CF801A08099
S1131BF0B18026FF03C0652D70E002C06FEF7FEF58
S1131C00C5012C870E940E122C0183012C852F778D
S1131C10222E17C03801F2E06F0E711CF801A0806B
S1131C20B18026FF03C0652D70E002C06FEF7FEF27
S1131C30C5012C870E9403122C012C852068222EBA
S1131C40830123FC1BC0832D90E048165906B0F491
S1131C50B70180E290E00E9457123A94F4CFF50164
S1131C6027FC859127FE81915F01B70190E00E94D6
S1131C70571231103A94F1E04F1A510841145104AB
S1131C8071F7E5C0843611F0893639F5F80127FF7C
S1131C9007C060817181828193810C5F1F4F08C0EE
S1131CA060817181882777FD8095982F0E5F1F4F83
S1131CB02F76B22E97FF09C0909580957095619507
S1131CC07F4F8F4F9F4F2068B22E2AE030E0A4014F
S1131CD00E94A212A82EA81844C0853729F42F7E8A
S1131CE0B22E2AE030E025C0F22FF97FBF2E8F36C6
S1131CF0C1F018F4883579F0B4C0803719F088370A
S1131D0021F0AFC02F2F2061B22EB4FE0DC08B2D59
S1131D108460B82E09C024FF0AC09F2F9660B92E94
S1131D2006C028E030E005C020E130E002C020E138
S1131D3032E0F801B7FE07C060817181828193812E
S1131D400C5F1F4F06C06081718180E090E00E5FE0
S1131D501F4FA4010E94A212A82EA818FB2DFF77E2
S1131D60BF2EB6FE0BC02B2D2E7FA51450F4B4FE4F
S1131D700AC0B2FC08C02B2D2E7E05C07A2C2B2D58
S1131D8003C07A2C01C0752C24FF0DC0FE01EA0D9E
S1131D90F11D8081803311F4297E09C022FF06C021
S1131DA07394739404C0822F867809F0739423FD8E
S1131DB013C020FF06C05A2C731418F4530C571880
S1131DC0732C731468F4B70180E290E02C870E94AE
S1131DD0571273942C85F5CF731410F4371801C07F
S1131DE0312C24FF12C0B70180E390E02C870E94BD
S1131DF057122C8522FF17C021FF03C088E590E00D
S1131E0002C088E790E0B7010CC0822F867859F0B1
S1131E1021FD02C080E201C08BE227FD8DE2B70103
S1131E2090E00E945712A51438F4B70180E390E0C3
S1131E300E9457125A94F7CFAA94F401EA0DF11DA7
S1131E408081B70190E00E945712A110F5CF332092
S1131E5009F451CEB70180E290E00E9457123A94FF
S1131E60F6CFF7018681978102C08FEF9FEF2C9602
S1131E70E2E10C941F1320FD09C0FC0123FD05C001
S1131E8022FF02C07383628351834083089544FD1B
S1131E9010C046FD10C0DB01FC01AA0FBB1FEE1FE2
S1131EA0FF1F1094D1F76A0F7B1F8E1F9F1F31E015
S1131EB003C033E001C034E0660F771F881F991F09
S1131EC03150D1F7620F711D811D911D08950F933B
S1131ED01F93CF93DF938C01C8010E941912EC0168
S1131EE097FD08C00E94F011892BB1F7B801CE010B
S1131EF00E948912CE01DF91CF911F910F91089515
S1131F008F929F92AF92CF92DF92EF92FF920F93B4
S1131F101F93CF93DF93EC01A62E4A01022F0E9458
S1131F201912AC0155274B32510521F04D325105A0
S1131F3051F40068AA9411F480E067C0CE010E94B5
S1131F40191297FDF9CF102F1D7F302F307301F533
S1131F508033F1F4FF24FA94FA0C09F442C0CE0160
S1131F600E94191297FD3DC0382F3F7D383551F43A
S1131F701264AA94AA94A9F1CE010E94191297FF9F
S1131F8007C02FC006FF02C0126001C01261AF2C4F
S1131F90C12CD12C760120ED280F283080F014FFBD
S1131FA004C0BE010E94891219C02A3040F016FFF5
S1131FB0F8CF2F7D3FEE320F363098F72750412F60
S1131FC0C701B6010E94470F6B017C011260AA94FD
S1131FD059F0CE010E94191297FFDDCF11FD04C004
S1131FE0ABCFC12CD12C760117FF08C0F094E0943C
S1131FF0D094C094C11CD11CE11CF11C212FB70149
S1132000A601C4010E943B0F81E0DF91CF911F9193
S11320100F91FF90EF90DF90CF90AF909F908F90B3
S11320200895A1E2B0E0E7E1F0E10C9408135C014B
S11320307A018E010F5F1F4F680180E2D8011D9263
S11320408A95E9F7F501738040E050E0812CB0E017
S1132050912C81E090E0F90173FCA59173FEA191AC
S11320608F017A2F9F01A11103C080E090E07DC011
S1132070AE3519F44115510559F1E92DF0E0E41795
S1132080F5073CF4AD3569F1AD3219F4BB2319F110
S113209003C0B11101C08A2EE72FE695E695E695B7
S11320A086010E0F111DF801A72FA7708C0102C025
S11320B0000F111FAA95E2F7D801B081BA2BB083A3
S11320C0781559F0781510F47F5FE6CF7150E4CF9E
S11320D09924939403C0B1E001C0B0E04F5F5F4F17
S11320E0BACFBB2319F08E8180628E83911003C016
S11320F09924939415C0F601CE01819620812095F0
S11321002193E817F907D1F7F3CFE114F10429F08B
S1132110D7018C93F70131967F01615001F1912C25
S1132120C50169A30E94191269A197FD16C0282F41
S1132130269526952695F601E20FF11D208130E0C3
S1132140AC014770552702C0359527954A95E2F7AB
S113215020FDDBCFB5010E948912911086CFE114D6
S1132160F10411F0D7011C92C801A196EDE00C9482
S113217024134F925F927F928F929F92AF92BF925D
S1132180CF92DF92EF92FF920F931F93CF93DF933F
S11321901F92CDB7DEB78C012B017A01FC011782A7
S11321A01682A12CF801D380F201D3FC8591D3FED1
S11321B08191382F2F01882309F4FCC090E03983E2
S11321C00E94F0113981892B21F0C8010E94670F08
S11321D0E9CF353241F4F201D3FC3591D3FE31918C
S11321E02F01353269F4C80139830E9419123981EB
S11321F097FDDEC03817B1F2B8010E948912DAC027
S11322003A3241F4D3FC3591D3FE31912F01BB24F2
S1132210B39401C0B12C712C20ED230F2A3090F41B
S1132220FB2DF260BF2E672D70E080E090E040E26D
S11322300E94470F762EF201D3FC3591D3FE3191E3
S11322402F01EACFB1FE03C0711003C0B3C07724DD
S11322507A94383619F03C3661F014C0F201D3FC9C
S11322603591D3FE31912F01383661F4FB2DF8609E
S1132270BF2E8B2D8460B82EF201D3FC3591D3FE92
S113228031912F01332309F495C0632F70E083E06B
S113229094E039830E94F8113981892B09F48AC0AA
S11322A0B0FC07C0F701C080D180C70102967C0151
S11322B002C0C12CD12C3E3651F4F801468157811D
S11322C060E070E02B2DC6010E943B0F6BCF3336CC
S11322D0A1F4B1FC02C077247394C8010E941912BE
S11322E097FD66C0C114D10429F0F6018083C601AC
S11322F001966C017A9489F757C03B3559F49201E1
S1132300A601672DC8010E9411102C01009709F045
S11323104BC045C0C80139830E94670F398197FDBE
S113232047C03F3669F128F4343631F1393679F152
S11323302BC0333769F03537F9F026C0C114D10406
S113234029F0F6018082C60101966C017A9471F03D
S1132350C8010E9419124C0197FD08C00E94F01197
S1132360892B61F3B801C4010E948912C114D104FC
S1132370D9F0F601108218C0FB2DF062BF2E07C001
S11323808B2D8061B82E03C09B2D9064B92E2B2D0C
S1132390A601672DC8010E94800F811105C0F801B4
S11323A08381807329F406C0B0FCFCCEA394FACEDA
S11323B0AA2019F08A2D90E002C08FEF9FEF0F90B2
S11323C0DF91CF911F910F91FF90EF90DF90CF900D
S11323D0BF90AF909F908F907F905F904F900895A3
S11323E091110EC1803219F089508550D0F70895AB
S11323F0FC010590061621F00020D9F7C0010895CC
S11324003197CF010895FC0105906150704001108F
S1132410D8F7809590958E0F9F1F0895FC01615009
S1132420704001900110D8F7809590958E0F9F1FF2
S11324300895CF93DF93EC012B8120FF33C026FF57
S11324400AC02F7B2B838E819F8101969F838E836D
S11324508A8190E029C022FF0FC0E881F981808140
S1132460992787FD9095009719F420622B831AC051
S11324703196F983E8830EC0EA85FB85099597FFB9
S113248009C02B81019611F480E101C080E2822B06
S11324908B8308C02E813F812F5F3F4F3F832E8364
S11324A0992702C08FEF9FEFDF91CF9108950F938B
S11324B01F93CF93DF93182F092FEB018B8181FD9D
S11324C003C08FEF9FEF20C082FF10C04E815F8159
S11324D02C813D81421753077CF4E881F9819F01E7
S11324E02F5F3F4F39832883108306C0E885F98521
S11324F0812F0995892B29F72E813F812F5F3F4F2B
S11325003F832E83812F902FDF91CF911F910F91C5
S11325100895FB01238120FF12C026FD10C08F3FC8
S11325203FEF930761F082832F7D2064238326810C
S113253037812150310937832683992708958FEFF6
S11325409FEF0895FA01AA27283051F1203181F133
S1132550E8946F936E7F6E5F7F4F8F4F9F4FAF4FA7
S1132560B1E03ED0B4E03CD0670F781F891F9A1FBA
S1132570A11D680F791F8A1F911DA11D6A0F711D6E
S1132580811D911DA11D20D009F468943F912AE07A
S1132590269F11243019305D3193DEF6CF01089562
S11325A0462F4770405D4193B3E00FD0C9F7F6CF93
S11325B0462F4F70405D4A3318F0495D31FD40525B
S11325C0419302D0A9F7EACFB4E0A69597958795F1
S11325D077956795BA95C9F70097610571050895D0
S11325E09B01AC010A2E069457954795379527957C
S11325F0BA95C9F7620F731F841F951FA01D089514
S11326009927882708952F923F924F925F926F9255
S11326107F928F929F92AF92BF92CF92DF92EF926E
S1132620FF920F931F93CF93DF93CDB7DEB7CA1BEF
S1132630DB0B0FB6F894DEBF0FBECDBF09942A881A
S1132640398848885F846E847D848C849B84AA84C2
S1132650B984C884DF80EE80FD800C811B81AA814F
S1132660B981CE0FD11D0FB6F894DEBF0FBECDBF1A
S10B2670ED010895F894FFCF79
S113267800000002000000007F0C000000000000C1
S1132688000200000000590A000000001A020A0DA6
S11326984552524F5220554E41424C4520544F20EA
S11326A8454E54455220434F4E464947204D4F44CA
S11326B8450A0D000A0D20434F4E464947204D4F09
S11326C844452041434849455645440A0D00496E4E
S11326D8746F204465627567206D6F646500496E88
S11326E8746F204F6E6C696E652074756E6E696EBA
S11326F86700557361727420736179732068656C1F
S11327086C6F210A0068656C6C6F20776F726C645B
S113271821210A0064617461205472616E3A202593
S1132728642C20783A2533642C20793A2533642C98
S1132738207472616E783A2025642C2025642C203C
S113274825642C2025642C20256400526563656962
S1132758766520446174613A202533692C20253339
S1132768692C2053503A202535642C20454E433A91
S1132778202535640A00257300650A00730A00667B
S11327880A00710A00636F6E6669670A00496E740D
S11327986F2050494420636F6E666967206D6F64CB
S11327A8650043757272656E74204B702532642C13
S11327B8204B692532642C204B6425326400706CEC
S11327C861790A00496E746F20506C6179206D6FCD
S11327D864650064656275670A006B7020006B703D
S11327E82025640A006E6577206B703A20253264D0
S11327F80A006B6920006B692025640A006E6577FE
S1132808206B693A202532640A006B6420006B64EB
S11328182025640A006E6577206B643A20253264AB
S11328280A00ED05080047060800ED0508004706FC
S11328380800ED050800E9070800A706080077075F
S11328480800E108080001000800EE0E0800DA0B91
S11328580800E1080800E907040001000800DA0B91
S1132868080068090800E907080077070400010060
S11328780800DA0B0800DA0B080047060800ED0523
S1132888080047060800ED050800E9070800A70640
S1132898080077070800E108080001000800EE0EA8
S11328A80800DA0B0800E1080800E9070400010041
S11328B80800DA0B080077070800E9070800E108B0
S10728C80400000004
S9030000FC
